{
  "transactions": [
    {
      "hash": "0x72d554b89c69f383b464f527681c547488551fb1cbf7fd6c13210bc7940f331a",
      "transactionType": "CALL",
      "contractName": null,
      "contractAddress": "0xb8499a427fd120f289ac198b41175460b61afec6",
      "function": "setPeer(uint32,bytes32)",
      "arguments": [
        "40161",
        "0x0000000000000000000000000562a3508ffa50f385afb5f68e71549b0c495ab9"
      ],
      "transaction": {
        "from": "0x225a8ec38e757d6c22a78c5953e6d59830c52351",
        "to": "0xb8499a427fd120f289ac198b41175460b61afec6",
        "gas": "0x98cd",
        "value": "0x0",
        "input": "0x3400288b0000000000000000000000000000000000000000000000000000000000009ce10000000000000000000000000562a3508ffa50f385afb5f68e71549b0c495ab9",
        "nonce": "0x9",
        "chainId": "0xaa37dc"
      },
      "additionalContracts": [],
      "isFixedGasLimit": false
    },
    {
      "hash": "0x8b4ac06151e3dd1c4dae92cfe913c435888dca2bdfebf93e91d2df929cc7a3a0",
      "transactionType": "CALL",
      "contractName": null,
      "contractAddress": "0xb8499a427fd120f289ac198b41175460b61afec6",
      "function": "setPeer(uint32,bytes32)",
      "arguments": [
        "40231",
        "0x0000000000000000000000003521efbc4458ce9fddef05f4961324d51a65ecd2"
      ],
      "transaction": {
        "from": "0x225a8ec38e757d6c22a78c5953e6d59830c52351",
        "to": "0xb8499a427fd120f289ac198b41175460b61afec6",
        "gas": "0x98cd",
        "value": "0x0",
        "input": "0x3400288b0000000000000000000000000000000000000000000000000000000000009d270000000000000000000000003521efbc4458ce9fddef05f4961324d51a65ecd2",
        "nonce": "0xa",
        "chainId": "0xaa37dc"
      },
      "additionalContracts": [],
      "isFixedGasLimit": false
    }
  ],
  "receipts": [
    {
      "status": "0x1",
      "cumulativeGasUsed": "0x12336",
      "logs": [
        {
          "address": "0xb8499a427fd120f289ac198b41175460b61afec6",
          "topics": [
            "0x238399d427b947898edb290f5ff0f9109849b1c3ba196a42e35f00c50a54b98b"
          ],
          "data": "0x0000000000000000000000000000000000000000000000000000000000009ce10000000000000000000000000562a3508ffa50f385afb5f68e71549b0c495ab9",
          "blockHash": "0x209cc0ac61d3c6680bd2b5131ac1da3bc5f3b87713a3b64c284ce0477fd3b3d2",
          "blockNumber": "0x24ebb2d",
          "blockTimestamp": "0x69745206",
          "transactionHash": "0x8b4ac06151e3dd1c4dae92cfe913c435888dca2bdfebf93e91d2df929cc7a3a0",
          "transactionIndex": "0x1",
          "logIndex": "0x0",
          "removed": false
        }
      ],
      "logsBloom": "0x00000000000000000001000000000000000000000000000000000000000000000000000000000000000000000000000000000000000000000800000000000000000000000000000000000000000004002000000000000000000000000000000000000000000000000000000000000000000000000000000000000000000000000000000000000000000000000000000000000000000000000000000000000000000000000000000000000000000000000000000000000000000002000000000000000000000000000000000000000000000000000000000000040000000000000000000000000000000000000000000000000000000000000000000000000000",
      "type": "0x2",
      "transactionHash": "0x8b4ac06151e3dd1c4dae92cfe913c435888dca2bdfebf93e91d2df929cc7a3a0",
      "transactionIndex": "0x1",
      "blockHash": "0x209cc0ac61d3c6680bd2b5131ac1da3bc5f3b87713a3b64c284ce0477fd3b3d2",
      "blockNumber": "0x24ebb2d",
      "gasUsed": "0x6ea0",
      "effectiveGasPrice": "0xf433a",
      "blobGasUsed": "0x9c40",
      "from": "0x225a8ec38e757d6c22a78c5953e6d59830c52351",
      "to": "0xb8499a427fd120f289ac198b41175460b61afec6",
      "contractAddress": null,
      "daFootprintGasScalar": "0x190",
      "l1BaseFeeScalar": "0x1db0",
      "l1BlobBaseFee": "0x3efbbea",
      "l1BlobBaseFeeScalar": "0xd2730",
      "l1Fee": "0x425ed8059",
      "l1GasPrice": "0x3b6cbb85",
      "l1GasUsed": "0x640"
    },
    {
      "status": "0x1",
      "cumulativeGasUsed": "0x191d6",
      "logs": [
        {
          "address": "0xb8499a427fd120f289ac198b41175460b61afec6",
          "topics": [
            "0x238399d427b947898edb290f5ff0f9109849b1c3ba196a42e35f00c50a54b98b"
          ],
          "data": "0x0000000000000000000000000000000000000000000000000000000000009d270000000000000000000000003521efbc4458ce9fddef05f4961324d51a65ecd2",
          "blockHash": "0xc7528433dba1371e89c931388055c65afc535d5bc5fb0e051473cc22991667c6",
          "blockNumber": "0x24ebb2d",
          "blockTimestamp": "0x69745206",
          "transactionHash": "0x72d554b89c69f383b464f527681c547488551fb1cbf7fd6c13210bc7940f331a",
          "transactionIndex": "0x2",
          "logIndex": "0x1",
          "removed": false
        }
      ],
      "logsBloom": "0x00000000000000000001000000000000000000000000000000000000000000000000000000000000000000000000000000000000000000000800000000000000000000000000000000000000000004002000000000000000000000000000000000000000000000000000000000000000000000000000000000000000000000000000000000000000000000000000000000000000000000000000000000000000000000000000000000000000000000000000000000000000000002000000000000000000000000000000000000000000000000000000000000040000000000000000000000000000000000000000000000000000000000000000000000000000",
      "type": "0x2",
      "transactionHash": "0x72d554b89c69f383b464f527681c547488551fb1cbf7fd6c13210bc7940f331a",
      "transactionIndex": "0x2",
      "blockHash": "0xc7528433dba1371e89c931388055c65afc535d5bc5fb0e051473cc22991667c6",
      "blockNumber": "0x24ebb2d",
      "gasUsed": "0x6ea0",
      "effectiveGasPrice": "0xf433a",
      "blobGasUsed": "0x9c40",
      "from": "0x225a8ec38e757d6c22a78c5953e6d59830c52351",
      "to": "0xb8499a427fd120f289ac198b41175460b61afec6",
      "contractAddress": null,
      "daFootprintGasScalar": "0x190",
      "l1BaseFeeScalar": "0x1db0",
      "l1BlobBaseFee": "0x3efbbea",
      "l1BlobBaseFeeScalar": "0xd2730",
      "l1Fee": "0x425ed8059",
      "l1GasPrice": "0x3b6cbb85",
      "l1GasUsed": "0x640"
    }
  ],
  "libraries": [],
  "pending": [],
  "returns": {},
  "timestamp": 1769230855093,
  "chain": 11155420,
  "commit": null
}