{
  "transactions": [
    {
      "hash": "0x3cfd56905e4d84df7191920b73860ce2aa78ffe01ed2d98040b2e960a9e68e02",
      "transactionType": "CALL",
      "contractName": null,
      "contractAddress": "0xb8499a427fd120f289ac198b41175460b61afec6",
      "function": "setPeer(uint32,bytes32)",
      "arguments": [
        "40161",
        "0x0000000000000000000000000562a3508ffa50f385afb5f68e71549b0c495ab9"
      ],
      "transaction": {
        "from": "0x225a8ec38e757d6c22a78c5953e6d59830c52351",
        "to": "0xb8499a427fd120f289ac198b41175460b61afec6",
        "gas": "0x1042a",
        "value": "0x0",
        "input": "0x3400288b0000000000000000000000000000000000000000000000000000000000009ce10000000000000000000000000562a3508ffa50f385afb5f68e71549b0c495ab9",
        "nonce": "0x6",
        "chainId": "0xaa37dc"
      },
      "additionalContracts": [],
      "isFixedGasLimit": false
    },
    {
      "hash": "0xf427965b1248a448898dcd7c9edbb59858df33bbda15483ea630636c2ede739a",
      "transactionType": "CALL",
      "contractName": null,
      "contractAddress": "0xb8499a427fd120f289ac198b41175460b61afec6",
      "function": "setPeer(uint32,bytes32)",
      "arguments": [
        "40231",
        "0x0000000000000000000000003521efbc4458ce9fddef05f4961324d51a65ecd2"
      ],
      "transaction": {
        "from": "0x225a8ec38e757d6c22a78c5953e6d59830c52351",
        "to": "0xb8499a427fd120f289ac198b41175460b61afec6",
        "gas": "0x1042a",
        "value": "0x0",
        "input": "0x3400288b0000000000000000000000000000000000000000000000000000000000009d270000000000000000000000003521efbc4458ce9fddef05f4961324d51a65ecd2",
        "nonce": "0x7",
        "chainId": "0xaa37dc"
      },
      "additionalContracts": [],
      "isFixedGasLimit": false
    }
  ],
  "receipts": [
    {
      "status": "0x1",
      "cumulativeGasUsed": "0x170f2",
      "logs": [
        {
          "address": "0xb8499a427fd120f289ac198b41175460b61afec6",
          "topics": [
            "0x238399d427b947898edb290f5ff0f9109849b1c3ba196a42e35f00c50a54b98b"
          ],
          "data": "0x0000000000000000000000000000000000000000000000000000000000009ce10000000000000000000000000562a3508ffa50f385afb5f68e71549b0c495ab9",
          "blockHash": "0x4b4b1f5a3cb03bd9a8831be16badc9b85f14c0e61d28450df687d3d740dccd9c",
          "blockNumber": "0x24eb9c0",
          "blockTimestamp": "0x69744f2c",
          "transactionHash": "0x3cfd56905e4d84df7191920b73860ce2aa78ffe01ed2d98040b2e960a9e68e02",
          "transactionIndex": "0x1",
          "logIndex": "0x0",
          "removed": false
        }
      ],
      "logsBloom": "0x00000000000000000001000000000000000000000000000000000000000000000000000000000000000000000000000000000000000000000800000000000000000000000000000000000000000004002000000000000000000000000000000000000000000000000000000000000000000000000000000000000000000000000000000000000000000000000000000000000000000000000000000000000000000000000000000000000000000000000000000000000000000002000000000000000000000000000000000000000000000000000000000000040000000000000000000000000000000000000000000000000000000000000000000000000000",
      "type": "0x2",
      "transactionHash": "0x3cfd56905e4d84df7191920b73860ce2aa78ffe01ed2d98040b2e960a9e68e02",
      "transactionIndex": "0x1",
      "blockHash": "0x4b4b1f5a3cb03bd9a8831be16badc9b85f14c0e61d28450df687d3d740dccd9c",
      "blockNumber": "0x24eb9c0",
      "gasUsed": "0xbc5c",
      "effectiveGasPrice": "0xf433a",
      "blobGasUsed": "0x9c40",
      "from": "0x225a8ec38e757d6c22a78c5953e6d59830c52351",
      "to": "0xb8499a427fd120f289ac198b41175460b61afec6",
      "contractAddress": null,
      "daFootprintGasScalar": "0x190",
      "l1BaseFeeScalar": "0x1db0",
      "l1BlobBaseFee": "0x3507dda",
      "l1BlobBaseFeeScalar": "0xd2730",
      "l1Fee": "0x437e72409",
      "l1GasPrice": "0x414fff3f",
      "l1GasUsed": "0x640"
    },
    {
      "status": "0x1",
      "cumulativeGasUsed": "0x22d4e",
      "logs": [
        {
          "address": "0xb8499a427fd120f289ac198b41175460b61afec6",
          "topics": [
            "0x238399d427b947898edb290f5ff0f9109849b1c3ba196a42e35f00c50a54b98b"
          ],
          "data": "0x0000000000000000000000000000000000000000000000000000000000009d270000000000000000000000003521efbc4458ce9fddef05f4961324d51a65ecd2",
          "blockHash": "0xa708d0f7293242c13fc50b7860bc590ad123dc706b4dbac590abfa51d76c7d32",
          "blockNumber": "0x24eb9c0",
          "blockTimestamp": "0x69744f2c",
          "transactionHash": "0xf427965b1248a448898dcd7c9edbb59858df33bbda15483ea630636c2ede739a",
          "transactionIndex": "0x2",
          "logIndex": "0x1",
          "removed": false
        }
      ],
      "logsBloom": "0x00000000000000000001000000000000000000000000000000000000000000000000000000000000000000000000000000000000000000000800000000000000000000000000000000000000000004002000000000000000000000000000000000000000000000000000000000000000000000000000000000000000000000000000000000000000000000000000000000000000000000000000000000000000000000000000000000000000000000000000000000000000000002000000000000000000000000000000000000000000000000000000000000040000000000000000000000000000000000000000000000000000000000000000000000000000",
      "type": "0x2",
      "transactionHash": "0xf427965b1248a448898dcd7c9edbb59858df33bbda15483ea630636c2ede739a",
      "transactionIndex": "0x2",
      "blockHash": "0xa708d0f7293242c13fc50b7860bc590ad123dc706b4dbac590abfa51d76c7d32",
      "blockNumber": "0x24eb9c0",
      "gasUsed": "0xbc5c",
      "effectiveGasPrice": "0xf433a",
      "blobGasUsed": "0x9c40",
      "from": "0x225a8ec38e757d6c22a78c5953e6d59830c52351",
      "to": "0xb8499a427fd120f289ac198b41175460b61afec6",
      "contractAddress": null,
      "daFootprintGasScalar": "0x190",
      "l1BaseFeeScalar": "0x1db0",
      "l1BlobBaseFee": "0x3507dda",
      "l1BlobBaseFeeScalar": "0xd2730",
      "l1Fee": "0x437e72409",
      "l1GasPrice": "0x414fff3f",
      "l1GasUsed": "0x640"
    }
  ],
  "libraries": [],
  "pending": [],
  "returns": {},
  "timestamp": 1769230124321,
  "chain": 11155420,
  "commit": null
}