{
  "transactions": [
    {
      "hash": "0x252845c99f77c9fb832cd8fe9838d877cabf7f4f27f63fe81c4a92748939f75e",
      "transactionType": "CALL",
      "contractName": null,
      "contractAddress": "0x55ecff559be5a8caa8210129109808bb2d7d4546",
      "function": "crossChainGenesis(uint32,bytes)",
      "arguments": [
        "40231",
        "0x00030100110100000000000000000000000000030d40"
      ],
      "transaction": {
        "from": "0x225a8ec38e757d6c22a78c5953e6d59830c52351",
        "to": "0x55ecff559be5a8caa8210129109808bb2d7d4546",
        "gas": "0x52832",
        "value": "0xaa87bee538000",
        "input": "0x77cee1550000000000000000000000000000000000000000000000000000000000009d270000000000000000000000000000000000000000000000000000000000000040000000000000000000000000000000000000000000000000000000000000001600030100110100000000000000000000000000030d4000000000000000000000",
        "nonce": "0xd",
        "chainId": "0xaa36a7"
      },
      "additionalContracts": [],
      "isFixedGasLimit": false
    }
  ],
  "receipts": [
    {
      "status": "0x1",
      "cumulativeGasUsed": "0x16d33a6",
      "logs": [
        {
          "address": "0xcc1ae8cf5d3904cef3360a9532b477529b177cce",
          "topics": [
            "0x61ed099e74a97a1d7f8bb0952a88ca8b7b8ebd00c126ea04671f92a81213318a"
          ],
          "data": "0x000000000000000000000000718b92b5cb0a5552039b593faf724d182a881eda00000000000000000000000000000000000000000000000000000af9220da9fd",
          "blockHash": "0xd1dc2c904c845bbca2561fc027b969f01ec887937f0c1775929c719581367434",
          "blockNumber": "0x99feda",
          "blockTimestamp": "0x6970e180",
          "transactionHash": "0x252845c99f77c9fb832cd8fe9838d877cabf7f4f27f63fe81c4a92748939f75e",
          "transactionIndex": "0x48",
          "logIndex": "0x1fe",
          "removed": false
        },
        {
          "address": "0xcc1ae8cf5d3904cef3360a9532b477529b177cce",
          "topics": [
            "0x07ea52d82345d6e838192107d8fd7123d9c2ec8e916cd0aad13fd2b60db24644"
          ],
          "data": "0x000000000000000000000000000000000000000000000000000000000000006000000000000000000000000000000000000000000000000000000000000000a000000000000000000000000000000000000000000000000000000000000000c000000000000000000000000000000000000000000000000000000000000000010000000000000000000000008eebf8b423b73bfca51a1db4b7354aa0bfca919300000000000000000000000000000000000000000000000000000000000000000000000000000000000000000000000000000000000000000000000000000001000000000000000000000000000000000000000000000000000004a3cf7c90fe",
          "blockHash": "0xd1dc2c904c845bbca2561fc027b969f01ec887937f0c1775929c719581367434",
          "blockNumber": "0x99feda",
          "blockTimestamp": "0x6970e180",
          "transactionHash": "0x252845c99f77c9fb832cd8fe9838d877cabf7f4f27f63fe81c4a92748939f75e",
          "transactionIndex": "0x48",
          "logIndex": "0x1ff",
          "removed": false
        },
        {
          "address": "0x6edce65403992e310a62460808c4b910d972f10f",
          "topics": [
            "0x1ab700d4ced0c005b164c0f789fd09fcbb0156d4c2041b8a3bfbcd961cd1567f"
          ],
          "data": "0x00000000000000000000000000000000000000000000000000000000000000600000000000000000000000000000000000000000000000000000000000000220000000000000000000000000cc1ae8cf5d3904cef3360a9532b477529b177cce000000000000000000000000000000000000000000000000000000000000019101000000000000000100009ce100000000000000000000000055ecff559be5a8caa8210129109808bb2d7d454600009d2700000000000000000000000013fee4454165eefcf3533d760bf306750ae08b015119a80cf016e66670c9c76b4b67a3fe362d74abcbfaacb80611d0afebbbdeee0000000000000000000000000000000000000000000000000000000000000001000000000000000000000000225a8ec38e757d6c22a78c5953e6d59830c523510000000000000000000000000000000000000000000000000000000000000060d6dfebbec90b3ea7b4050d837331e141ea6d9b9106e1fdea5647d88c050f2f7600000000000000000000000000000000000000000000000000000000000000800000000000000000000000000000000000000000000000000000000000000001000000000000000000000000000000000000000000000000000000006970c794000000000000000000000000000000000000000000000000000000000000000d457820556e6f20506c7572657300000000000000000000000000000000000000000000000000000000000000000000000000000000000000000000000000000000000000000000000000000000001600030100110100000000000000000000000000030d4000000000000000000000",
          "blockHash": "0xd1dc2c904c845bbca2561fc027b969f01ec887937f0c1775929c719581367434",
          "blockNumber": "0x99feda",
          "blockTimestamp": "0x6970e180",
          "transactionHash": "0x252845c99f77c9fb832cd8fe9838d877cabf7f4f27f63fe81c4a92748939f75e",
          "transactionIndex": "0x48",
          "logIndex": "0x200",
          "removed": false
        }
      ],
      "logsBloom": "0x00000000000000000000000000000000000000000000000000000000000100000000000000000000200000000000000000000000000000000000000000000000000000000000000000000000000000000000000000000000000000000000000000000000000000008200000000000000000000000000000000000000000000000000000000000020000000080000000000000000000000000000000000000000000000008000000000100000000000000000000000400000000440000000000000000000000000000000000000000000000000080000000000000000000000000000040000000000000000000000002000000000000000000000000000000020",
      "type": "0x2",
      "transactionHash": "0x252845c99f77c9fb832cd8fe9838d877cabf7f4f27f63fe81c4a92748939f75e",
      "transactionIndex": "0x48",
      "blockHash": "0xd1dc2c904c845bbca2561fc027b969f01ec887937f0c1775929c719581367434",
      "blockNumber": "0x99feda",
      "gasUsed": "0x3bbcd",
      "effectiveGasPrice": "0x479bd25d",
      "from": "0x225a8ec38e757d6c22a78c5953e6d59830c52351",
      "to": "0x55ecff559be5a8caa8210129109808bb2d7d4546",
      "contractAddress": null
    }
  ],
  "libraries": [],
  "pending": [],
  "returns": {},
  "timestamp": 1769005443378,
  "chain": 11155111,
  "commit": null
}