{
  "transactions": [
    {
      "hash": "0x4e9b3ef8b2bc95c61f42e1eeadfb4e9c02c6176cce73147243490820c945d0d1",
      "transactionType": "CALL",
      "contractName": null,
      "contractAddress": "0x0562a3508ffa50f385afb5f68e71549b0c495ab9",
      "function": "train(uint32,bytes)",
      "arguments": [
        "40231",
        "0x00030100110100000000000000000000000000030d40"
      ],
      "transaction": {
        "from": "0x225a8ec38e757d6c22a78c5953e6d59830c52351",
        "to": "0x0562a3508ffa50f385afb5f68e71549b0c495ab9",
        "gas": "0x4c9fc",
        "value": "0x71afd498d0000",
        "input": "0x4156be4f0000000000000000000000000000000000000000000000000000000000009d270000000000000000000000000000000000000000000000000000000000000040000000000000000000000000000000000000000000000000000000000000001600030100110100000000000000000000000000030d4000000000000000000000",
        "nonce": "0x19",
        "chainId": "0xaa36a7"
      },
      "additionalContracts": [],
      "isFixedGasLimit": false
    }
  ],
  "receipts": [
    {
      "status": "0x1",
      "cumulativeGasUsed": "0x23c8f5",
      "logs": [
        {
          "address": "0x0562a3508ffa50f385afb5f68e71549b0c495ab9",
          "topics": [
            "0x2552a679a3be9d4ed48257326a2eb9abda660b3b0c707295b50376865904bfc1",
            "0x000000000000000000000000225a8ec38e757d6c22a78c5953e6d59830c52351"
          ],
          "data": "0x00000000000000000000000000000000000000000000000000000000000000050000000000000000000000000000000000000000000000000000000000000040000000000000000000000000000000000000000000000000000000000000000c4c6f63616c20416374696f6e0000000000000000000000000000000000000000",
          "blockHash": "0xe50d1e0745ec2e6fdf06c24360e1ccadabcb265ba791d7d351138c92ca07a1ea",
          "blockNumber": "0x9a4042",
          "blockTimestamp": "0x6973f818",
          "transactionHash": "0x4e9b3ef8b2bc95c61f42e1eeadfb4e9c02c6176cce73147243490820c945d0d1",
          "transactionIndex": "0x17",
          "logIndex": "0x11",
          "removed": false
        },
        {
          "address": "0xcc1ae8cf5d3904cef3360a9532b477529b177cce",
          "topics": [
            "0x61ed099e74a97a1d7f8bb0952a88ca8b7b8ebd00c126ea04671f92a81213318a"
          ],
          "data": "0x000000000000000000000000718b92b5cb0a5552039b593faf724d182a881eda00000000000000000000000000000000000000000000000000000ae91dd3a89f",
          "blockHash": "0xe50d1e0745ec2e6fdf06c24360e1ccadabcb265ba791d7d351138c92ca07a1ea",
          "blockNumber": "0x9a4042",
          "blockTimestamp": "0x6973f818",
          "transactionHash": "0x4e9b3ef8b2bc95c61f42e1eeadfb4e9c02c6176cce73147243490820c945d0d1",
          "transactionIndex": "0x17",
          "logIndex": "0x12",
          "removed": false
        },
        {
          "address": "0xcc1ae8cf5d3904cef3360a9532b477529b177cce",
          "topics": [
            "0x07ea52d82345d6e838192107d8fd7123d9c2ec8e916cd0aad13fd2b60db24644"
          ],
          "data": "0x000000000000000000000000000000000000000000000000000000000000006000000000000000000000000000000000000000000000000000000000000000a000000000000000000000000000000000000000000000000000000000000000c000000000000000000000000000000000000000000000000000000000000000010000000000000000000000008eebf8b423b73bfca51a1db4b7354aa0bfca919300000000000000000000000000000000000000000000000000000000000000000000000000000000000000000000000000000000000000000000000000000001000000000000000000000000000000000000000000000000000004a40aa73540",
          "blockHash": "0xe50d1e0745ec2e6fdf06c24360e1ccadabcb265ba791d7d351138c92ca07a1ea",
          "blockNumber": "0x9a4042",
          "blockTimestamp": "0x6973f818",
          "transactionHash": "0x4e9b3ef8b2bc95c61f42e1eeadfb4e9c02c6176cce73147243490820c945d0d1",
          "transactionIndex": "0x17",
          "logIndex": "0x13",
          "removed": false
        },
        {
          "address": "0x6edce65403992e310a62460808c4b910d972f10f",
          "topics": [
            "0x1ab700d4ced0c005b164c0f789fd09fcbb0156d4c2041b8a3bfbcd961cd1567f"
          ],
          "data": "0x00000000000000000000000000000000000000000000000000000000000000600000000000000000000000000000000000000000000000000000000000000140000000000000000000000000cc1ae8cf5d3904cef3360a9532b477529b177cce00000000000000000000000000000000000000000000000000000000000000b101000000000000000400009ce10000000000000000000000000562a3508ffa50f385afb5f68e71549b0c495ab900009d270000000000000000000000003521efbc4458ce9fddef05f4961324d51a65ecd295ae6d2f03c789144fbad4f458f9745176d4e4a593d518851b4cc5420bbac764000000000000000000000000225a8ec38e757d6c22a78c5953e6d59830c523510000000000000000000000000000000000000000000000000000000000000005000000000000000000000000000000000000000000000000000000000000000000000000000000000000000000001600030100110100000000000000000000000000030d4000000000000000000000",
          "blockHash": "0xe50d1e0745ec2e6fdf06c24360e1ccadabcb265ba791d7d351138c92ca07a1ea",
          "blockNumber": "0x9a4042",
          "blockTimestamp": "0x6973f818",
          "transactionHash": "0x4e9b3ef8b2bc95c61f42e1eeadfb4e9c02c6176cce73147243490820c945d0d1",
          "transactionIndex": "0x17",
          "logIndex": "0x14",
          "removed": false
        }
      ],
      "logsBloom": "0x00000000000000000000000000000000000000000000000000000000000100000000000000000002200000000000000000000000000000000000000000000000000000000000000000000000000000000000080000000000001000000000000000000000000000008200000000000000000000000000000000000000000000000000000000000020000000080000000000000000000000010000000000000000000000008000000000100000000000000000000000400000000440000400000000000010000000000000000000000000000040080000000000000000000000000000040000000000000000000000002000000001000000000000000000000020",
      "type": "0x2",
      "transactionHash": "0x4e9b3ef8b2bc95c61f42e1eeadfb4e9c02c6176cce73147243490820c945d0d1",
      "transactionIndex": "0x17",
      "blockHash": "0xe50d1e0745ec2e6fdf06c24360e1ccadabcb265ba791d7d351138c92ca07a1ea",
      "blockNumber": "0x9a4042",
      "gasUsed": "0x37798",
      "effectiveGasPrice": "0x4189a04d",
      "from": "0x225a8ec38e757d6c22a78c5953e6d59830c52351",
      "to": "0x0562a3508ffa50f385afb5f68e71549b0c495ab9",
      "contractAddress": null
    }
  ],
  "libraries": [],
  "pending": [],
  "returns": {},
  "timestamp": 1769207834037,
  "chain": 11155111,
  "commit": null
}