{
  "transactions": [
    {
      "hash": "0xb1bd4407d7bb94b08c187230ef76c721dbfee65e4c896a7a60e64e8abd1c7a4f",
      "transactionType": "CALL",
      "contractName": null,
      "contractAddress": "0x0562a3508ffa50f385afb5f68e71549b0c495ab9",
      "function": "mintIdentity(string)",
      "arguments": [
        "Batman"
      ],
      "transaction": {
        "from": "0x225a8ec38e757d6c22a78c5953e6d59830c52351",
        "to": "0x0562a3508ffa50f385afb5f68e71549b0c495ab9",
        "gas": "0x28d4b",
        "value": "0x0",
        "input": "0x1c453c65000000000000000000000000000000000000000000000000000000000000002000000000000000000000000000000000000000000000000000000000000000064261746d616e0000000000000000000000000000000000000000000000000000",
        "nonce": "0x11",
        "chainId": "0xaa36a7"
      },
      "additionalContracts": [],
      "isFixedGasLimit": false
    },
    {
      "hash": "0x01901216842e4746c43e4e1d863623b935b2d6c834193af6e14319e040aeec6d",
      "transactionType": "CALL",
      "contractName": null,
      "contractAddress": "0x0562a3508ffa50f385afb5f68e71549b0c495ab9",
      "function": "train(uint32,bytes)",
      "arguments": [
        "40231",
        "0x00030100110100000000000000000000000000030d40"
      ],
      "transaction": {
        "from": "0x225a8ec38e757d6c22a78c5953e6d59830c52351",
        "to": "0x0562a3508ffa50f385afb5f68e71549b0c495ab9",
        "gas": "0x51724",
        "value": "0xaa87bee538000",
        "input": "0x4156be4f0000000000000000000000000000000000000000000000000000000000009d270000000000000000000000000000000000000000000000000000000000000040000000000000000000000000000000000000000000000000000000000000001600030100110100000000000000000000000000030d4000000000000000000000",
        "nonce": "0x12",
        "chainId": "0xaa36a7"
      },
      "additionalContracts": [],
      "isFixedGasLimit": false
    }
  ],
  "receipts": [
    {
      "status": "0x1",
      "cumulativeGasUsed": "0x6a900e",
      "logs": [
        {
          "address": "0x0562a3508ffa50f385afb5f68e71549b0c495ab9",
          "topics": [
            "0xc57bc26436cd8a34f73d087e078b8b500467ab264f8aab6e1afaafa5978483fd",
            "0x000000000000000000000000225a8ec38e757d6c22a78c5953e6d59830c52351"
          ],
          "data": "0xd89e961a06e35a5f6eea894c2accadc7a914eea12fbddc65421d177a5c11c548",
          "blockHash": "0x9fc5e7f33b355fbc4118261c336664cc8c57d7d73d5e3c015a4e05e1a93eabe5",
          "blockNumber": "0x9a0af8",
          "blockTimestamp": "0x697176c0",
          "transactionHash": "0x01901216842e4746c43e4e1d863623b935b2d6c834193af6e14319e040aeec6d",
          "transactionIndex": "0x27",
          "logIndex": "0x29",
          "removed": false
        }
      ],
      "logsBloom": "0x00000000000000000000000000000000000000000000000000000008000000000000000000000002000000000000000000000000000000000000000000000000000000000000000000000000000000000000080000000000001000000000000000000000000000000000000000000000000000000000000000000000000000000000000000000000000000000000000000000000000000000000000000000000000000000000000000000000000000000000000000000000000000000400000000000000000000000001000000000000000040000000000000000000000000000000000000000004000000000000000000000001000000000000000000000000",
      "type": "0x2",
      "transactionHash": "0x01901216842e4746c43e4e1d863623b935b2d6c834193af6e14319e040aeec6d",
      "transactionIndex": "0x27",
      "blockHash": "0x9fc5e7f33b355fbc4118261c336664cc8c57d7d73d5e3c015a4e05e1a93eabe5",
      "blockNumber": "0x9a0af8",
      "gasUsed": "0x1beb3",
      "effectiveGasPrice": "0x3f56ce31",
      "from": "0x225a8ec38e757d6c22a78c5953e6d59830c52351",
      "to": "0x0562a3508ffa50f385afb5f68e71549b0c495ab9",
      "contractAddress": null
    },
    {
      "status": "0x1",
      "cumulativeGasUsed": "0x6e3f82",
      "logs": [
        {
          "address": "0x0562a3508ffa50f385afb5f68e71549b0c495ab9",
          "topics": [
            "0x2552a679a3be9d4ed48257326a2eb9abda660b3b0c707295b50376865904bfc1",
            "0x000000000000000000000000225a8ec38e757d6c22a78c5953e6d59830c52351"
          ],
          "data": "0x00000000000000000000000000000000000000000000000000000000000000020000000000000000000000000000000000000000000000000000000000000040000000000000000000000000000000000000000000000000000000000000000c4c6f63616c20416374696f6e0000000000000000000000000000000000000000",
          "blockHash": "0x9fc5e7f33b355fbc4118261c336664cc8c57d7d73d5e3c015a4e05e1a93eabe5",
          "blockNumber": "0x9a0af8",
          "blockTimestamp": "0x697176c0",
          "transactionHash": "0xb1bd4407d7bb94b08c187230ef76c721dbfee65e4c896a7a60e64e8abd1c7a4f",
          "transactionIndex": "0x28",
          "logIndex": "0x2a",
          "removed": false
        },
        {
          "address": "0xcc1ae8cf5d3904cef3360a9532b477529b177cce",
          "topics": [
            "0x61ed099e74a97a1d7f8bb0952a88ca8b7b8ebd00c126ea04671f92a81213318a"
          ],
          "data": "0x000000000000000000000000718b92b5cb0a5552039b593faf724d182a881eda00000000000000000000000000000000000000000000000000000ae87197a9fd",
          "blockHash": "0x9fc5e7f33b355fbc4118261c336664cc8c57d7d73d5e3c015a4e05e1a93eabe5",
          "blockNumber": "0x9a0af8",
          "blockTimestamp": "0x697176c0",
          "transactionHash": "0xb1bd4407d7bb94b08c187230ef76c721dbfee65e4c896a7a60e64e8abd1c7a4f",
          "transactionIndex": "0x28",
          "logIndex": "0x2b",
          "removed": false
        },
        {
          "address": "0xcc1ae8cf5d3904cef3360a9532b477529b177cce",
          "topics": [
            "0x07ea52d82345d6e838192107d8fd7123d9c2ec8e916cd0aad13fd2b60db24644"
          ],
          "data": "0x000000000000000000000000000000000000000000000000000000000000006000000000000000000000000000000000000000000000000000000000000000a000000000000000000000000000000000000000000000000000000000000000c000000000000000000000000000000000000000000000000000000000000000010000000000000000000000008eebf8b423b73bfca51a1db4b7354aa0bfca919300000000000000000000000000000000000000000000000000000000000000000000000000000000000000000000000000000000000000000000000000000001000000000000000000000000000000000000000000000000000004a3cf7c90fe",
          "blockHash": "0x9fc5e7f33b355fbc4118261c336664cc8c57d7d73d5e3c015a4e05e1a93eabe5",
          "blockNumber": "0x9a0af8",
          "blockTimestamp": "0x697176c0",
          "transactionHash": "0xb1bd4407d7bb94b08c187230ef76c721dbfee65e4c896a7a60e64e8abd1c7a4f",
          "transactionIndex": "0x28",
          "logIndex": "0x2c",
          "removed": false
        },
        {
          "address": "0x6edce65403992e310a62460808c4b910d972f10f",
          "topics": [
            "0x1ab700d4ced0c005b164c0f789fd09fcbb0156d4c2041b8a3bfbcd961cd1567f"
          ],
          "data": "0x00000000000000000000000000000000000000000000000000000000000000600000000000000000000000000000000000000000000000000000000000000140000000000000000000000000cc1ae8cf5d3904cef3360a9532b477529b177cce00000000000000000000000000000000000000000000000000000000000000b101000000000000000100009ce10000000000000000000000000562a3508ffa50f385afb5f68e71549b0c495ab900009d270000000000000000000000003521efbc4458ce9fddef05f4961324d51a65ecd2297f9446a88dba2aeddef72318a5d2a7e2a13e454c6c31beadc2da47c62e39f2000000000000000000000000225a8ec38e757d6c22a78c5953e6d59830c523510000000000000000000000000000000000000000000000000000000000000002000000000000000000000000000000000000000000000000000000000000000000000000000000000000000000001600030100110100000000000000000000000000030d4000000000000000000000",
          "blockHash": "0x9fc5e7f33b355fbc4118261c336664cc8c57d7d73d5e3c015a4e05e1a93eabe5",
          "blockNumber": "0x9a0af8",
          "blockTimestamp": "0x697176c0",
          "transactionHash": "0xb1bd4407d7bb94b08c187230ef76c721dbfee65e4c896a7a60e64e8abd1c7a4f",
          "transactionIndex": "0x28",
          "logIndex": "0x2d",
          "removed": false
        }
      ],
      "logsBloom": "0x00000000000000000000000000000000000000000000000000000000000100000000000000000002200000000000000000000000000000000000000000000000000000000000000000000000000000000000080000000000001000000000000000000000000000008200000000000000000000000000000000000000000000000000000000000020000000080000000000000000000000010000000000000000000000008000000000100000000000000000000000400000000440000400000000000010000000000000000000000000000040080000000000000000000000000000040000000000000000000000002000000001000000000000000000000020",
      "type": "0x2",
      "transactionHash": "0xb1bd4407d7bb94b08c187230ef76c721dbfee65e4c896a7a60e64e8abd1c7a4f",
      "transactionIndex": "0x28",
      "blockHash": "0x9fc5e7f33b355fbc4118261c336664cc8c57d7d73d5e3c015a4e05e1a93eabe5",
      "blockNumber": "0x9a0af8",
      "gasUsed": "0x3af74",
      "effectiveGasPrice": "0x3f56ce31",
      "from": "0x225a8ec38e757d6c22a78c5953e6d59830c52351",
      "to": "0x0562a3508ffa50f385afb5f68e71549b0c495ab9",
      "contractAddress": null
    }
  ],
  "libraries": [],
  "pending": [],
  "returns": {},
  "timestamp": 1769043650244,
  "chain": 11155111,
  "commit": null
}