{
  "transactions": [
    {
      "hash": "0xb9093856aa5223ba0dc96d5542e5e56c1de12ea812bc344b2fc2ef5f2a6f2a86",
      "transactionType": "CALL",
      "contractName": null,
      "contractAddress": "0x0562a3508ffa50f385afb5f68e71549b0c495ab9",
      "function": "train(uint32,bytes)",
      "arguments": [
        "40232",
        "0x00030100110100000000000000000000000000030d40"
      ],
      "transaction": {
        "from": "0x225a8ec38e757d6c22a78c5953e6d59830c52351",
        "to": "0x0562a3508ffa50f385afb5f68e71549b0c495ab9",
        "gas": "0x4c9fc",
        "value": "0x71afd498d0000",
        "input": "0x4156be4f0000000000000000000000000000000000000000000000000000000000009d280000000000000000000000000000000000000000000000000000000000000040000000000000000000000000000000000000000000000000000000000000001600030100110100000000000000000000000000030d4000000000000000000000",
        "nonce": "0x21",
        "chainId": "0xaa36a7"
      },
      "additionalContracts": [],
      "isFixedGasLimit": false
    }
  ],
  "receipts": [
    {
      "status": "0x1",
      "cumulativeGasUsed": "0x4b200b",
      "logs": [
        {
          "address": "0x0562a3508ffa50f385afb5f68e71549b0c495ab9",
          "topics": [
            "0x2552a679a3be9d4ed48257326a2eb9abda660b3b0c707295b50376865904bfc1",
            "0x000000000000000000000000225a8ec38e757d6c22a78c5953e6d59830c52351"
          ],
          "data": "0x000000000000000000000000000000000000000000000000000000000000000b0000000000000000000000000000000000000000000000000000000000000040000000000000000000000000000000000000000000000000000000000000000c4c6f63616c20416374696f6e0000000000000000000000000000000000000000",
          "blockHash": "0xce6fbf86996c3ceda2607e47dc37e8621e0a0819edd9143d32e84e6fd1c1ab45",
          "blockNumber": "0x9a46f6",
          "blockTimestamp": "0x697448ac",
          "transactionHash": "0xb9093856aa5223ba0dc96d5542e5e56c1de12ea812bc344b2fc2ef5f2a6f2a86",
          "transactionIndex": "0x23",
          "logIndex": "0x41",
          "removed": false
        },
        {
          "address": "0xcc1ae8cf5d3904cef3360a9532b477529b177cce",
          "topics": [
            "0x61ed099e74a97a1d7f8bb0952a88ca8b7b8ebd00c126ea04671f92a81213318a"
          ],
          "data": "0x000000000000000000000000718b92b5cb0a5552039b593faf724d182a881eda000000000000000000000000000000000000000000000000000005f72708fc4d",
          "blockHash": "0xce6fbf86996c3ceda2607e47dc37e8621e0a0819edd9143d32e84e6fd1c1ab45",
          "blockNumber": "0x9a46f6",
          "blockTimestamp": "0x697448ac",
          "transactionHash": "0xb9093856aa5223ba0dc96d5542e5e56c1de12ea812bc344b2fc2ef5f2a6f2a86",
          "transactionIndex": "0x23",
          "logIndex": "0x42",
          "removed": false
        },
        {
          "address": "0xcc1ae8cf5d3904cef3360a9532b477529b177cce",
          "topics": [
            "0x07ea52d82345d6e838192107d8fd7123d9c2ec8e916cd0aad13fd2b60db24644"
          ],
          "data": "0x000000000000000000000000000000000000000000000000000000000000006000000000000000000000000000000000000000000000000000000000000000a000000000000000000000000000000000000000000000000000000000000000c000000000000000000000000000000000000000000000000000000000000000010000000000000000000000008eebf8b423b73bfca51a1db4b7354aa0bfca919300000000000000000000000000000000000000000000000000000000000000000000000000000000000000000000000000000000000000000000000000000001000000000000000000000000000000000000000000000000000002f1272f661e",
          "blockHash": "0xce6fbf86996c3ceda2607e47dc37e8621e0a0819edd9143d32e84e6fd1c1ab45",
          "blockNumber": "0x9a46f6",
          "blockTimestamp": "0x697448ac",
          "transactionHash": "0xb9093856aa5223ba0dc96d5542e5e56c1de12ea812bc344b2fc2ef5f2a6f2a86",
          "transactionIndex": "0x23",
          "logIndex": "0x43",
          "removed": false
        },
        {
          "address": "0x6edce65403992e310a62460808c4b910d972f10f",
          "topics": [
            "0x1ab700d4ced0c005b164c0f789fd09fcbb0156d4c2041b8a3bfbcd961cd1567f"
          ],
          "data": "0x00000000000000000000000000000000000000000000000000000000000000600000000000000000000000000000000000000000000000000000000000000140000000000000000000000000cc1ae8cf5d3904cef3360a9532b477529b177cce00000000000000000000000000000000000000000000000000000000000000b101000000000000000300009ce10000000000000000000000000562a3508ffa50f385afb5f68e71549b0c495ab900009d28000000000000000000000000f4b56e581759b6b64a431bbc36fc1b799f140e4105876656f1bcd00da0ebea93b1991161abee0e9ce9ec2314c27f6c7091effe06000000000000000000000000225a8ec38e757d6c22a78c5953e6d59830c52351000000000000000000000000000000000000000000000000000000000000000b000000000000000000000000000000000000000000000000000000000000000000000000000000000000000000001600030100110100000000000000000000000000030d4000000000000000000000",
          "blockHash": "0xce6fbf86996c3ceda2607e47dc37e8621e0a0819edd9143d32e84e6fd1c1ab45",
          "blockNumber": "0x9a46f6",
          "blockTimestamp": "0x697448ac",
          "transactionHash": "0xb9093856aa5223ba0dc96d5542e5e56c1de12ea812bc344b2fc2ef5f2a6f2a86",
          "transactionIndex": "0x23",
          "logIndex": "0x44",
          "removed": false
        }
      ],
      "logsBloom": "0x00000000000000000000000000000000000000000000000000000000000100000000000000000002200000000000000000000000000000000000000000000000000000000000000000000000000000000000080000000000001000000000000000000000000000008200000000000000000000000000000000000000000000000000000000000020000000080000000000000000000000010000000000000000000000008000000000100000000000000000000000400000000440000400000000000010000000000000000000000000000040080000000000000000000000000000040000000000000000000000002000000001000000000000000000000020",
      "type": "0x2",
      "transactionHash": "0xb9093856aa5223ba0dc96d5542e5e56c1de12ea812bc344b2fc2ef5f2a6f2a86",
      "transactionIndex": "0x23",
      "blockHash": "0xce6fbf86996c3ceda2607e47dc37e8621e0a0819edd9143d32e84e6fd1c1ab45",
      "blockNumber": "0x9a46f6",
      "gasUsed": "0x37798",
      "effectiveGasPrice": "0x3fc80e08",
      "from": "0x225a8ec38e757d6c22a78c5953e6d59830c52351",
      "to": "0x0562a3508ffa50f385afb5f68e71549b0c495ab9",
      "contractAddress": null
    }
  ],
  "libraries": [],
  "pending": [],
  "returns": {},
  "timestamp": 1769228461656,
  "chain": 11155111,
  "commit": null
}