{
  "transactions": [
    {
      "hash": "0x0149fee52b5d0ec047fd04aa0251ff76b613a0d4427b9342239829a7b052d712",
      "transactionType": "CALL",
      "contractName": null,
      "contractAddress": "0x0562a3508ffa50f385afb5f68e71549b0c495ab9",
      "function": "train(uint32,bytes)",
      "arguments": [
        "40232",
        "0x00030100110100000000000000000000000000030d40"
      ],
      "transaction": {
        "from": "0x225a8ec38e757d6c22a78c5953e6d59830c52351",
        "to": "0x0562a3508ffa50f385afb5f68e71549b0c495ab9",
        "gas": "0x4c9fc",
        "value": "0x5543df729c000",
        "input": "0x4156be4f0000000000000000000000000000000000000000000000000000000000009d280000000000000000000000000000000000000000000000000000000000000040000000000000000000000000000000000000000000000000000000000000001600030100110100000000000000000000000000030d4000000000000000000000",
        "nonce": "0x27",
        "chainId": "0xaa36a7"
      },
      "additionalContracts": [],
      "isFixedGasLimit": false
    }
  ],
  "receipts": [
    {
      "status": "0x1",
      "cumulativeGasUsed": "0x3e7d65",
      "logs": [
        {
          "address": "0x0562a3508ffa50f385afb5f68e71549b0c495ab9",
          "topics": [
            "0x2552a679a3be9d4ed48257326a2eb9abda660b3b0c707295b50376865904bfc1",
            "0x000000000000000000000000225a8ec38e757d6c22a78c5953e6d59830c52351"
          ],
          "data": "0x000000000000000000000000000000000000000000000000000000000000000d0000000000000000000000000000000000000000000000000000000000000040000000000000000000000000000000000000000000000000000000000000000c4c6f63616c20416374696f6e0000000000000000000000000000000000000000",
          "blockHash": "0x5a7585469ec00b1f5195260fd32e4f3169dfa2e1df6aebff2d4d78ba57a44ab5",
          "blockNumber": "0x9a47c4",
          "blockTimestamp": "0x69745254",
          "transactionHash": "0x0149fee52b5d0ec047fd04aa0251ff76b613a0d4427b9342239829a7b052d712",
          "transactionIndex": "0x24",
          "logIndex": "0x28",
          "removed": false
        },
        {
          "address": "0xcc1ae8cf5d3904cef3360a9532b477529b177cce",
          "topics": [
            "0x61ed099e74a97a1d7f8bb0952a88ca8b7b8ebd00c126ea04671f92a81213318a"
          ],
          "data": "0x000000000000000000000000718b92b5cb0a5552039b593faf724d182a881eda000000000000000000000000000000000000000000000000000005f72708fc4d",
          "blockHash": "0x5a7585469ec00b1f5195260fd32e4f3169dfa2e1df6aebff2d4d78ba57a44ab5",
          "blockNumber": "0x9a47c4",
          "blockTimestamp": "0x69745254",
          "transactionHash": "0x0149fee52b5d0ec047fd04aa0251ff76b613a0d4427b9342239829a7b052d712",
          "transactionIndex": "0x24",
          "logIndex": "0x29",
          "removed": false
        },
        {
          "address": "0xcc1ae8cf5d3904cef3360a9532b477529b177cce",
          "topics": [
            "0x07ea52d82345d6e838192107d8fd7123d9c2ec8e916cd0aad13fd2b60db24644"
          ],
          "data": "0x000000000000000000000000000000000000000000000000000000000000006000000000000000000000000000000000000000000000000000000000000000a000000000000000000000000000000000000000000000000000000000000000c000000000000000000000000000000000000000000000000000000000000000010000000000000000000000008eebf8b423b73bfca51a1db4b7354aa0bfca919300000000000000000000000000000000000000000000000000000000000000000000000000000000000000000000000000000000000000000000000000000001000000000000000000000000000000000000000000000000000002f1272f661e",
          "blockHash": "0x5a7585469ec00b1f5195260fd32e4f3169dfa2e1df6aebff2d4d78ba57a44ab5",
          "blockNumber": "0x9a47c4",
          "blockTimestamp": "0x69745254",
          "transactionHash": "0x0149fee52b5d0ec047fd04aa0251ff76b613a0d4427b9342239829a7b052d712",
          "transactionIndex": "0x24",
          "logIndex": "0x2a",
          "removed": false
        },
        {
          "address": "0x6edce65403992e310a62460808c4b910d972f10f",
          "topics": [
            "0x1ab700d4ced0c005b164c0f789fd09fcbb0156d4c2041b8a3bfbcd961cd1567f"
          ],
          "data": "0x00000000000000000000000000000000000000000000000000000000000000600000000000000000000000000000000000000000000000000000000000000140000000000000000000000000cc1ae8cf5d3904cef3360a9532b477529b177cce00000000000000000000000000000000000000000000000000000000000000b101000000000000000200009ce10000000000000000000000000562a3508ffa50f385afb5f68e71549b0c495ab900009d28000000000000000000000000b8499a427fd120f289ac198b41175460b61afec6baf25d5665ce9b77eedaaa7be362365d7529cefc7c0cf78a88805f359d56e220000000000000000000000000225a8ec38e757d6c22a78c5953e6d59830c52351000000000000000000000000000000000000000000000000000000000000000d000000000000000000000000000000000000000000000000000000000000000000000000000000000000000000001600030100110100000000000000000000000000030d4000000000000000000000",
          "blockHash": "0x5a7585469ec00b1f5195260fd32e4f3169dfa2e1df6aebff2d4d78ba57a44ab5",
          "blockNumber": "0x9a47c4",
          "blockTimestamp": "0x69745254",
          "transactionHash": "0x0149fee52b5d0ec047fd04aa0251ff76b613a0d4427b9342239829a7b052d712",
          "transactionIndex": "0x24",
          "logIndex": "0x2b",
          "removed": false
        }
      ],
      "logsBloom": "0x00000000000000000000000000000000000000000000000000000000000100000000000000000002200000000000000000000000000000000000000000000000000000000000000000000000000000000000080000000000001000000000000000000000000000008200000000000000000000000000000000000000000000000000000000000020000000080000000000000000000000010000000000000000000000008000000000100000000000000000000000400000000440000400000000000010000000000000000000000000000040080000000000000000000000000000040000000000000000000000002000000001000000000000000000000020",
      "type": "0x2",
      "transactionHash": "0x0149fee52b5d0ec047fd04aa0251ff76b613a0d4427b9342239829a7b052d712",
      "transactionIndex": "0x24",
      "blockHash": "0x5a7585469ec00b1f5195260fd32e4f3169dfa2e1df6aebff2d4d78ba57a44ab5",
      "blockNumber": "0x9a47c4",
      "gasUsed": "0x37798",
      "effectiveGasPrice": "0x40ac51ed",
      "from": "0x225a8ec38e757d6c22a78c5953e6d59830c52351",
      "to": "0x0562a3508ffa50f385afb5f68e71549b0c495ab9",
      "contractAddress": null
    }
  ],
  "libraries": [],
  "pending": [],
  "returns": {},
  "timestamp": 1769230932733,
  "chain": 11155111,
  "commit": null
}