{
  "transactions": [
    {
      "hash": "0x05c2e048a27223ba617d8febb642076a2d95f5e6ba596d2ca60ab94979f570d3",
      "transactionType": "CALL",
      "contractName": null,
      "contractAddress": "0x0562a3508ffa50f385afb5f68e71549b0c495ab9",
      "function": "train(uint32,bytes)",
      "arguments": [
        "40231",
        "0x00030100110100000000000000000000000000030d40"
      ],
      "transaction": {
        "from": "0x225a8ec38e757d6c22a78c5953e6d59830c52351",
        "to": "0x0562a3508ffa50f385afb5f68e71549b0c495ab9",
        "gas": "0x4c9fc",
        "value": "0x71afd498d0000",
        "input": "0x4156be4f0000000000000000000000000000000000000000000000000000000000009d270000000000000000000000000000000000000000000000000000000000000040000000000000000000000000000000000000000000000000000000000000001600030100110100000000000000000000000000030d4000000000000000000000",
        "nonce": "0x13",
        "chainId": "0xaa36a7"
      },
      "additionalContracts": [],
      "isFixedGasLimit": false
    }
  ],
  "receipts": [
    {
      "status": "0x1",
      "cumulativeGasUsed": "0x26a2cc",
      "logs": [
        {
          "address": "0x0562a3508ffa50f385afb5f68e71549b0c495ab9",
          "topics": [
            "0x2552a679a3be9d4ed48257326a2eb9abda660b3b0c707295b50376865904bfc1",
            "0x000000000000000000000000225a8ec38e757d6c22a78c5953e6d59830c52351"
          ],
          "data": "0x00000000000000000000000000000000000000000000000000000000000000030000000000000000000000000000000000000000000000000000000000000040000000000000000000000000000000000000000000000000000000000000000c4c6f63616c20416374696f6e0000000000000000000000000000000000000000",
          "blockHash": "0x7b1c6f069095cab5b3f8092a57ef22463e5f7ed300201c1b1d616c35451394c3",
          "blockNumber": "0x9a0b23",
          "blockTimestamp": "0x697178d0",
          "transactionHash": "0x05c2e048a27223ba617d8febb642076a2d95f5e6ba596d2ca60ab94979f570d3",
          "transactionIndex": "0x15",
          "logIndex": "0x19",
          "removed": false
        },
        {
          "address": "0xcc1ae8cf5d3904cef3360a9532b477529b177cce",
          "topics": [
            "0x61ed099e74a97a1d7f8bb0952a88ca8b7b8ebd00c126ea04671f92a81213318a"
          ],
          "data": "0x000000000000000000000000718b92b5cb0a5552039b593faf724d182a881eda00000000000000000000000000000000000000000000000000000ae87197a9fd",
          "blockHash": "0x7b1c6f069095cab5b3f8092a57ef22463e5f7ed300201c1b1d616c35451394c3",
          "blockNumber": "0x9a0b23",
          "blockTimestamp": "0x697178d0",
          "transactionHash": "0x05c2e048a27223ba617d8febb642076a2d95f5e6ba596d2ca60ab94979f570d3",
          "transactionIndex": "0x15",
          "logIndex": "0x1a",
          "removed": false
        },
        {
          "address": "0xcc1ae8cf5d3904cef3360a9532b477529b177cce",
          "topics": [
            "0x07ea52d82345d6e838192107d8fd7123d9c2ec8e916cd0aad13fd2b60db24644"
          ],
          "data": "0x000000000000000000000000000000000000000000000000000000000000006000000000000000000000000000000000000000000000000000000000000000a000000000000000000000000000000000000000000000000000000000000000c000000000000000000000000000000000000000000000000000000000000000010000000000000000000000008eebf8b423b73bfca51a1db4b7354aa0bfca919300000000000000000000000000000000000000000000000000000000000000000000000000000000000000000000000000000000000000000000000000000001000000000000000000000000000000000000000000000000000004a3cf7c90fe",
          "blockHash": "0x7b1c6f069095cab5b3f8092a57ef22463e5f7ed300201c1b1d616c35451394c3",
          "blockNumber": "0x9a0b23",
          "blockTimestamp": "0x697178d0",
          "transactionHash": "0x05c2e048a27223ba617d8febb642076a2d95f5e6ba596d2ca60ab94979f570d3",
          "transactionIndex": "0x15",
          "logIndex": "0x1b",
          "removed": false
        },
        {
          "address": "0x6edce65403992e310a62460808c4b910d972f10f",
          "topics": [
            "0x1ab700d4ced0c005b164c0f789fd09fcbb0156d4c2041b8a3bfbcd961cd1567f"
          ],
          "data": "0x00000000000000000000000000000000000000000000000000000000000000600000000000000000000000000000000000000000000000000000000000000140000000000000000000000000cc1ae8cf5d3904cef3360a9532b477529b177cce00000000000000000000000000000000000000000000000000000000000000b101000000000000000200009ce10000000000000000000000000562a3508ffa50f385afb5f68e71549b0c495ab900009d270000000000000000000000003521efbc4458ce9fddef05f4961324d51a65ecd2159caa6980668a4d8a26f086dc18923d5510d4e485f3e4e1a2f35f1acbf30893000000000000000000000000225a8ec38e757d6c22a78c5953e6d59830c523510000000000000000000000000000000000000000000000000000000000000003000000000000000000000000000000000000000000000000000000000000000000000000000000000000000000001600030100110100000000000000000000000000030d4000000000000000000000",
          "blockHash": "0x7b1c6f069095cab5b3f8092a57ef22463e5f7ed300201c1b1d616c35451394c3",
          "blockNumber": "0x9a0b23",
          "blockTimestamp": "0x697178d0",
          "transactionHash": "0x05c2e048a27223ba617d8febb642076a2d95f5e6ba596d2ca60ab94979f570d3",
          "transactionIndex": "0x15",
          "logIndex": "0x1c",
          "removed": false
        }
      ],
      "logsBloom": "0x00000000000000000000000000000000000000000000000000000000000100000000000000000002200000000000000000000000000000000000000000000000000000000000000000000000000000000000080000000000001000000000000000000000000000008200000000000000000000000000000000000000000000000000000000000020000000080000000000000000000000010000000000000000000000008000000000100000000000000000000000400000000440000400000000000010000000000000000000000000000040080000000000000000000000000000040000000000000000000000002000000001000000000000000000000020",
      "type": "0x2",
      "transactionHash": "0x05c2e048a27223ba617d8febb642076a2d95f5e6ba596d2ca60ab94979f570d3",
      "transactionIndex": "0x15",
      "blockHash": "0x7b1c6f069095cab5b3f8092a57ef22463e5f7ed300201c1b1d616c35451394c3",
      "blockNumber": "0x9a0b23",
      "gasUsed": "0x37798",
      "effectiveGasPrice": "0x40da03d7",
      "from": "0x225a8ec38e757d6c22a78c5953e6d59830c52351",
      "to": "0x0562a3508ffa50f385afb5f68e71549b0c495ab9",
      "contractAddress": null
    }
  ],
  "libraries": [],
  "pending": [],
  "returns": {},
  "timestamp": 1769044179064,
  "chain": 11155111,
  "commit": null
}