{
  "transactions": [
    {
      "hash": "0xfd1c1b3258561c09052920290052419a5ee5145044dcbb49b7491a64e73b0b34",
      "transactionType": "CALL",
      "contractName": null,
      "contractAddress": "0x0562a3508ffa50f385afb5f68e71549b0c495ab9",
      "function": "train(uint32,bytes)",
      "arguments": [
        "40231",
        "0x00030100110100000000000000000000000000030d40"
      ],
      "transaction": {
        "from": "0x225a8ec38e757d6c22a78c5953e6d59830c52351",
        "to": "0x0562a3508ffa50f385afb5f68e71549b0c495ab9",
        "gas": "0x4c9fc",
        "value": "0xaa87bee538000",
        "input": "0x4156be4f0000000000000000000000000000000000000000000000000000000000009d270000000000000000000000000000000000000000000000000000000000000040000000000000000000000000000000000000000000000000000000000000001600030100110100000000000000000000000000030d4000000000000000000000",
        "nonce": "0x1a",
        "chainId": "0xaa36a7"
      },
      "additionalContracts": [],
      "isFixedGasLimit": false
    },
    {
      "hash": "0x9500c1b5a5595ecdb91f887b0d66901563718bd6d8008ecdd9867df376291bf9",
      "transactionType": "CALL",
      "contractName": null,
      "contractAddress": "0x0562a3508ffa50f385afb5f68e71549b0c495ab9",
      "function": "train(uint32,bytes)",
      "arguments": [
        "40232",
        "0x00030100110100000000000000000000000000030d40"
      ],
      "transaction": {
        "from": "0x225a8ec38e757d6c22a78c5953e6d59830c52351",
        "to": "0x0562a3508ffa50f385afb5f68e71549b0c495ab9",
        "gas": "0x51724",
        "value": "0xaa87bee538000",
        "input": "0x4156be4f0000000000000000000000000000000000000000000000000000000000009d280000000000000000000000000000000000000000000000000000000000000040000000000000000000000000000000000000000000000000000000000000001600030100110100000000000000000000000000030d4000000000000000000000",
        "nonce": "0x1b",
        "chainId": "0xaa36a7"
      },
      "additionalContracts": [],
      "isFixedGasLimit": false
    }
  ],
  "receipts": [
    {
      "status": "0x1",
      "cumulativeGasUsed": "0x66ebc0",
      "logs": [
        {
          "address": "0x0562a3508ffa50f385afb5f68e71549b0c495ab9",
          "topics": [
            "0x2552a679a3be9d4ed48257326a2eb9abda660b3b0c707295b50376865904bfc1",
            "0x000000000000000000000000225a8ec38e757d6c22a78c5953e6d59830c52351"
          ],
          "data": "0x00000000000000000000000000000000000000000000000000000000000000060000000000000000000000000000000000000000000000000000000000000040000000000000000000000000000000000000000000000000000000000000000c4c6f63616c20416374696f6e0000000000000000000000000000000000000000",
          "blockHash": "0x17e1e6511282fdc45fa979d46e84e4d03c53c2c3314eedd52585f7812ce05e82",
          "blockNumber": "0x9a4054",
          "blockTimestamp": "0x6973f8f0",
          "transactionHash": "0xfd1c1b3258561c09052920290052419a5ee5145044dcbb49b7491a64e73b0b34",
          "transactionIndex": "0x33",
          "logIndex": "0x49",
          "removed": false
        },
        {
          "address": "0xcc1ae8cf5d3904cef3360a9532b477529b177cce",
          "topics": [
            "0x61ed099e74a97a1d7f8bb0952a88ca8b7b8ebd00c126ea04671f92a81213318a"
          ],
          "data": "0x000000000000000000000000718b92b5cb0a5552039b593faf724d182a881eda00000000000000000000000000000000000000000000000000000ae91dd3a89f",
          "blockHash": "0x17e1e6511282fdc45fa979d46e84e4d03c53c2c3314eedd52585f7812ce05e82",
          "blockNumber": "0x9a4054",
          "blockTimestamp": "0x6973f8f0",
          "transactionHash": "0xfd1c1b3258561c09052920290052419a5ee5145044dcbb49b7491a64e73b0b34",
          "transactionIndex": "0x33",
          "logIndex": "0x4a",
          "removed": false
        },
        {
          "address": "0xcc1ae8cf5d3904cef3360a9532b477529b177cce",
          "topics": [
            "0x07ea52d82345d6e838192107d8fd7123d9c2ec8e916cd0aad13fd2b60db24644"
          ],
          "data": "0x000000000000000000000000000000000000000000000000000000000000006000000000000000000000000000000000000000000000000000000000000000a000000000000000000000000000000000000000000000000000000000000000c000000000000000000000000000000000000000000000000000000000000000010000000000000000000000008eebf8b423b73bfca51a1db4b7354aa0bfca919300000000000000000000000000000000000000000000000000000000000000000000000000000000000000000000000000000000000000000000000000000001000000000000000000000000000000000000000000000000000004a40aa73540",
          "blockHash": "0x17e1e6511282fdc45fa979d46e84e4d03c53c2c3314eedd52585f7812ce05e82",
          "blockNumber": "0x9a4054",
          "blockTimestamp": "0x6973f8f0",
          "transactionHash": "0xfd1c1b3258561c09052920290052419a5ee5145044dcbb49b7491a64e73b0b34",
          "transactionIndex": "0x33",
          "logIndex": "0x4b",
          "removed": false
        },
        {
          "address": "0x6edce65403992e310a62460808c4b910d972f10f",
          "topics": [
            "0x1ab700d4ced0c005b164c0f789fd09fcbb0156d4c2041b8a3bfbcd961cd1567f"
          ],
          "data": "0x00000000000000000000000000000000000000000000000000000000000000600000000000000000000000000000000000000000000000000000000000000140000000000000000000000000cc1ae8cf5d3904cef3360a9532b477529b177cce00000000000000000000000000000000000000000000000000000000000000b101000000000000000500009ce10000000000000000000000000562a3508ffa50f385afb5f68e71549b0c495ab900009d270000000000000000000000003521efbc4458ce9fddef05f4961324d51a65ecd2fd91511f99f3353310869dd9374d68a8a59010ad977247202e094a3beecfb39f000000000000000000000000225a8ec38e757d6c22a78c5953e6d59830c523510000000000000000000000000000000000000000000000000000000000000006000000000000000000000000000000000000000000000000000000000000000000000000000000000000000000001600030100110100000000000000000000000000030d4000000000000000000000",
          "blockHash": "0x17e1e6511282fdc45fa979d46e84e4d03c53c2c3314eedd52585f7812ce05e82",
          "blockNumber": "0x9a4054",
          "blockTimestamp": "0x6973f8f0",
          "transactionHash": "0xfd1c1b3258561c09052920290052419a5ee5145044dcbb49b7491a64e73b0b34",
          "transactionIndex": "0x33",
          "logIndex": "0x4c",
          "removed": false
        }
      ],
      "logsBloom": "0x00000000000000000000000000000000000000000000000000000000000100000000000000000002200000000000000000000000000000000000000000000000000000000000000000000000000000000000080000000000001000000000000000000000000000008200000000000000000000000000000000000000000000000000000000000020000000080000000000000000000000010000000000000000000000008000000000100000000000000000000000400000000440000400000000000010000000000000000000000000000040080000000000000000000000000000040000000000000000000000002000000001000000000000000000000020",
      "type": "0x2",
      "transactionHash": "0xfd1c1b3258561c09052920290052419a5ee5145044dcbb49b7491a64e73b0b34",
      "transactionIndex": "0x33",
      "blockHash": "0x17e1e6511282fdc45fa979d46e84e4d03c53c2c3314eedd52585f7812ce05e82",
      "blockNumber": "0x9a4054",
      "gasUsed": "0x37798",
      "effectiveGasPrice": "0x3d4ce947",
      "from": "0x225a8ec38e757d6c22a78c5953e6d59830c52351",
      "to": "0x0562a3508ffa50f385afb5f68e71549b0c495ab9",
      "contractAddress": null
    },
    {
      "status": "0x1",
      "cumulativeGasUsed": "0x391c751",
      "logs": [
        {
          "address": "0x0562a3508ffa50f385afb5f68e71549b0c495ab9",
          "topics": [
            "0x2552a679a3be9d4ed48257326a2eb9abda660b3b0c707295b50376865904bfc1",
            "0x000000000000000000000000225a8ec38e757d6c22a78c5953e6d59830c52351"
          ],
          "data": "0x00000000000000000000000000000000000000000000000000000000000000070000000000000000000000000000000000000000000000000000000000000040000000000000000000000000000000000000000000000000000000000000000c4c6f63616c20416374696f6e0000000000000000000000000000000000000000",
          "blockHash": "0x9a98c71917622d2646e968b4e3ed3783ab3abd840046d3541a912f286d018387",
          "blockNumber": "0x9a4055",
          "blockTimestamp": "0x6973f8fc",
          "transactionHash": "0x9500c1b5a5595ecdb91f887b0d66901563718bd6d8008ecdd9867df376291bf9",
          "transactionIndex": "0x55",
          "logIndex": "0x8b",
          "removed": false
        },
        {
          "address": "0xcc1ae8cf5d3904cef3360a9532b477529b177cce",
          "topics": [
            "0x61ed099e74a97a1d7f8bb0952a88ca8b7b8ebd00c126ea04671f92a81213318a"
          ],
          "data": "0x000000000000000000000000718b92b5cb0a5552039b593faf724d182a881eda000000000000000000000000000000000000000000000000000005f72708fc4d",
          "blockHash": "0x9a98c71917622d2646e968b4e3ed3783ab3abd840046d3541a912f286d018387",
          "blockNumber": "0x9a4055",
          "blockTimestamp": "0x6973f8fc",
          "transactionHash": "0x9500c1b5a5595ecdb91f887b0d66901563718bd6d8008ecdd9867df376291bf9",
          "transactionIndex": "0x55",
          "logIndex": "0x8c",
          "removed": false
        },
        {
          "address": "0xcc1ae8cf5d3904cef3360a9532b477529b177cce",
          "topics": [
            "0x07ea52d82345d6e838192107d8fd7123d9c2ec8e916cd0aad13fd2b60db24644"
          ],
          "data": "0x000000000000000000000000000000000000000000000000000000000000006000000000000000000000000000000000000000000000000000000000000000a000000000000000000000000000000000000000000000000000000000000000c000000000000000000000000000000000000000000000000000000000000000010000000000000000000000008eebf8b423b73bfca51a1db4b7354aa0bfca919300000000000000000000000000000000000000000000000000000000000000000000000000000000000000000000000000000000000000000000000000000001000000000000000000000000000000000000000000000000000002f1272f661e",
          "blockHash": "0x9a98c71917622d2646e968b4e3ed3783ab3abd840046d3541a912f286d018387",
          "blockNumber": "0x9a4055",
          "blockTimestamp": "0x6973f8fc",
          "transactionHash": "0x9500c1b5a5595ecdb91f887b0d66901563718bd6d8008ecdd9867df376291bf9",
          "transactionIndex": "0x55",
          "logIndex": "0x8d",
          "removed": false
        },
        {
          "address": "0x6edce65403992e310a62460808c4b910d972f10f",
          "topics": [
            "0x1ab700d4ced0c005b164c0f789fd09fcbb0156d4c2041b8a3bfbcd961cd1567f"
          ],
          "data": "0x00000000000000000000000000000000000000000000000000000000000000600000000000000000000000000000000000000000000000000000000000000140000000000000000000000000cc1ae8cf5d3904cef3360a9532b477529b177cce00000000000000000000000000000000000000000000000000000000000000b101000000000000000100009ce10000000000000000000000000562a3508ffa50f385afb5f68e71549b0c495ab900009d28000000000000000000000000fbfa5024ec85e46e3ea1428183f0f5404ae6221bc288a0fcd80f5b2270ff5e32101230f7523bd0cbf5432031b8e41e45613c7029000000000000000000000000225a8ec38e757d6c22a78c5953e6d59830c523510000000000000000000000000000000000000000000000000000000000000007000000000000000000000000000000000000000000000000000000000000000000000000000000000000000000001600030100110100000000000000000000000000030d4000000000000000000000",
          "blockHash": "0x9a98c71917622d2646e968b4e3ed3783ab3abd840046d3541a912f286d018387",
          "blockNumber": "0x9a4055",
          "blockTimestamp": "0x6973f8fc",
          "transactionHash": "0x9500c1b5a5595ecdb91f887b0d66901563718bd6d8008ecdd9867df376291bf9",
          "transactionIndex": "0x55",
          "logIndex": "0x8e",
          "removed": false
        }
      ],
      "logsBloom": "0x00000000000000000000000000000000000000000000000000000000000100000000000000000002200000000000000000000000000000000000000000000000000000000000000000000000000000000000080000000000001000000000000000000000000000008200000000000000000000000000000000000000000000000000000000000020000000080000000000000000000000010000000000000000000000008000000000100000000000000000000000400000000440000400000000000010000000000000000000000000000040080000000000000000000000000000040000000000000000000000002000000001000000000000000000000020",
      "type": "0x2",
      "transactionHash": "0x9500c1b5a5595ecdb91f887b0d66901563718bd6d8008ecdd9867df376291bf9",
      "transactionIndex": "0x55",
      "blockHash": "0x9a98c71917622d2646e968b4e3ed3783ab3abd840046d3541a912f286d018387",
      "blockNumber": "0x9a4055",
      "gasUsed": "0x3ba64",
      "effectiveGasPrice": "0x37c08200",
      "from": "0x225a8ec38e757d6c22a78c5953e6d59830c52351",
      "to": "0x0562a3508ffa50f385afb5f68e71549b0c495ab9",
      "contractAddress": null
    }
  ],
  "libraries": [],
  "pending": [],
  "returns": {},
  "timestamp": 1769208062108,
  "chain": 11155111,
  "commit": null
}