{
  "transactions": [
    {
      "hash": "0x415eb47d330f21a3fe8069a75a54f18c26d300821b6c423b8cf3d245a47c3d3d",
      "transactionType": "CALL",
      "contractName": null,
      "contractAddress": "0x55ecff559be5a8caa8210129109808bb2d7d4546",
      "function": "mintIdentity(string)",
      "arguments": [
        "Ex Uno Plures"
      ],
      "transaction": {
        "from": "0x225a8ec38e757d6c22a78c5953e6d59830c52351",
        "to": "0x55ecff559be5a8caa8210129109808bb2d7d4546",
        "gas": "0x28d63",
        "value": "0x0",
        "input": "0x1c453c650000000000000000000000000000000000000000000000000000000000000020000000000000000000000000000000000000000000000000000000000000000d457820556e6f20506c7572657300000000000000000000000000000000000000",
        "nonce": "0x9",
        "chainId": "0xaa36a7"
      },
      "additionalContracts": [],
      "isFixedGasLimit": false
    },
    {
      "hash": "0x583ab114d4e40f468163d784768a19c5cead2664f63ada7d4ea9984a0e00baad",
      "transactionType": "CALL",
      "contractName": null,
      "contractAddress": "0x55ecff559be5a8caa8210129109808bb2d7d4546",
      "function": "crossChainGenesis(uint32,bytes)",
      "arguments": [
        "40231",
        "0x00030100110100000000000000000000000000030d40"
      ],
      "transaction": {
        "from": "0x225a8ec38e757d6c22a78c5953e6d59830c52351",
        "to": "0x55ecff559be5a8caa8210129109808bb2d7d4546",
        "gas": "0x52832",
        "value": "0xaa87bee538000",
        "input": "0x77cee1550000000000000000000000000000000000000000000000000000000000009d270000000000000000000000000000000000000000000000000000000000000040000000000000000000000000000000000000000000000000000000000000001600030100110100000000000000000000000000030d4000000000000000000000",
        "nonce": "0xa",
        "chainId": "0xaa36a7"
      },
      "additionalContracts": [],
      "isFixedGasLimit": false
    }
  ],
  "receipts": [
    {
      "status": "0x1",
      "cumulativeGasUsed": "0x737d14",
      "logs": [
        {
          "address": "0x55ecff559be5a8caa8210129109808bb2d7d4546",
          "topics": [
            "0xc57bc26436cd8a34f73d087e078b8b500467ab264f8aab6e1afaafa5978483fd",
            "0x000000000000000000000000225a8ec38e757d6c22a78c5953e6d59830c52351"
          ],
          "data": "0xd6dfebbec90b3ea7b4050d837331e141ea6d9b9106e1fdea5647d88c050f2f76",
          "blockHash": "0x1303f3ce3533f0a5b7bbea42a1071728286e4fdc84ee7e091f1b5f3d9be38f59",
          "blockNumber": "0x99fccc",
          "blockTimestamp": "0x6970c794",
          "transactionHash": "0x415eb47d330f21a3fe8069a75a54f18c26d300821b6c423b8cf3d245a47c3d3d",
          "transactionIndex": "0x3d",
          "logIndex": "0x5c",
          "removed": false
        }
      ],
      "logsBloom": "0x00000000000000000000000000000000000000000000000000000008000000000000000000000002000000000000000000000400000000000000000000000000000000000000000000000000000000000000000000000000000000000000000000000000000000000000000000000000000000000000000000000000000000000000000000000000000000000010000000000000002000000000000000000000000000000000000000000000000000000000000000000000000000000400000000000000000000000001000000000000000040000000000000000000000000000000000000000004000000000000000000000000000000000000000000000000",
      "type": "0x2",
      "transactionHash": "0x415eb47d330f21a3fe8069a75a54f18c26d300821b6c423b8cf3d245a47c3d3d",
      "transactionIndex": "0x3d",
      "blockHash": "0x1303f3ce3533f0a5b7bbea42a1071728286e4fdc84ee7e091f1b5f3d9be38f59",
      "blockNumber": "0x99fccc",
      "gasUsed": "0x1bec3",
      "effectiveGasPrice": "0x417daa81",
      "from": "0x225a8ec38e757d6c22a78c5953e6d59830c52351",
      "to": "0x55ecff559be5a8caa8210129109808bb2d7d4546",
      "contractAddress": null
    },
    {
      "status": "0x1",
      "cumulativeGasUsed": "0x7738e1",
      "logs": [
        {
          "address": "0xcc1ae8cf5d3904cef3360a9532b477529b177cce",
          "topics": [
            "0x61ed099e74a97a1d7f8bb0952a88ca8b7b8ebd00c126ea04671f92a81213318a"
          ],
          "data": "0x000000000000000000000000718b92b5cb0a5552039b593faf724d182a881eda00000000000000000000000000000000000000000000000000000aff111b97fd",
          "blockHash": "0x1303f3ce3533f0a5b7bbea42a1071728286e4fdc84ee7e091f1b5f3d9be38f59",
          "blockNumber": "0x99fccc",
          "blockTimestamp": "0x6970c794",
          "transactionHash": "0x583ab114d4e40f468163d784768a19c5cead2664f63ada7d4ea9984a0e00baad",
          "transactionIndex": "0x3e",
          "logIndex": "0x5d",
          "removed": false
        },
        {
          "address": "0xcc1ae8cf5d3904cef3360a9532b477529b177cce",
          "topics": [
            "0x07ea52d82345d6e838192107d8fd7123d9c2ec8e916cd0aad13fd2b60db24644"
          ],
          "data": "0x000000000000000000000000000000000000000000000000000000000000006000000000000000000000000000000000000000000000000000000000000000a000000000000000000000000000000000000000000000000000000000000000c000000000000000000000000000000000000000000000000000000000000000010000000000000000000000008eebf8b423b73bfca51a1db4b7354aa0bfca919300000000000000000000000000000000000000000000000000000000000000000000000000000000000000000000000000000000000000000000000000000001000000000000000000000000000000000000000000000000000004a5d2dc1cfe",
          "blockHash": "0x1303f3ce3533f0a5b7bbea42a1071728286e4fdc84ee7e091f1b5f3d9be38f59",
          "blockNumber": "0x99fccc",
          "blockTimestamp": "0x6970c794",
          "transactionHash": "0x583ab114d4e40f468163d784768a19c5cead2664f63ada7d4ea9984a0e00baad",
          "transactionIndex": "0x3e",
          "logIndex": "0x5e",
          "removed": false
        },
        {
          "address": "0x6edce65403992e310a62460808c4b910d972f10f",
          "topics": [
            "0x1ab700d4ced0c005b164c0f789fd09fcbb0156d4c2041b8a3bfbcd961cd1567f"
          ],
          "data": "0x00000000000000000000000000000000000000000000000000000000000000600000000000000000000000000000000000000000000000000000000000000220000000000000000000000000cc1ae8cf5d3904cef3360a9532b477529b177cce000000000000000000000000000000000000000000000000000000000000019101000000000000000100009ce100000000000000000000000055ecff559be5a8caa8210129109808bb2d7d454600009d27000000000000000000000000d9da3edfbc7f66eb4de1bb20868ca308375f8452a162a889021f8ca9311fa3f1e973c53a25a73a09a0f36643bb424601e87678df0000000000000000000000000000000000000000000000000000000000000001000000000000000000000000225a8ec38e757d6c22a78c5953e6d59830c523510000000000000000000000000000000000000000000000000000000000000060d6dfebbec90b3ea7b4050d837331e141ea6d9b9106e1fdea5647d88c050f2f7600000000000000000000000000000000000000000000000000000000000000800000000000000000000000000000000000000000000000000000000000000001000000000000000000000000000000000000000000000000000000006970c794000000000000000000000000000000000000000000000000000000000000000d457820556e6f20506c7572657300000000000000000000000000000000000000000000000000000000000000000000000000000000000000000000000000000000000000000000000000000000001600030100110100000000000000000000000000030d4000000000000000000000",
          "blockHash": "0x1303f3ce3533f0a5b7bbea42a1071728286e4fdc84ee7e091f1b5f3d9be38f59",
          "blockNumber": "0x99fccc",
          "blockTimestamp": "0x6970c794",
          "transactionHash": "0x583ab114d4e40f468163d784768a19c5cead2664f63ada7d4ea9984a0e00baad",
          "transactionIndex": "0x3e",
          "logIndex": "0x5f",
          "removed": false
        }
      ],
      "logsBloom": "0x00000000000000000000000000000000000000000000000000000000000100000000000000000000200000000000000000000000000000000000000000000000000000000000000000000000000000000000000000000000000000000000000000000000000000008200000000000000000000000000000000000000000000000000000000000020000000080000000000000000000000000000000000000000000000008000000000100000000000000000000000400000000440000000000000000000000000000000000000000000000000080000000000000000000000000000040000000000000000000000002000000000000000000000000000000020",
      "type": "0x2",
      "transactionHash": "0x583ab114d4e40f468163d784768a19c5cead2664f63ada7d4ea9984a0e00baad",
      "transactionIndex": "0x3e",
      "blockHash": "0x1303f3ce3533f0a5b7bbea42a1071728286e4fdc84ee7e091f1b5f3d9be38f59",
      "blockNumber": "0x99fccc",
      "gasUsed": "0x3bbcd",
      "effectiveGasPrice": "0x417daa81",
      "from": "0x225a8ec38e757d6c22a78c5953e6d59830c52351",
      "to": "0x55ecff559be5a8caa8210129109808bb2d7d4546",
      "contractAddress": null
    }
  ],
  "libraries": [],
  "pending": [],
  "returns": {},
  "timestamp": 1768998806029,
  "chain": 11155111,
  "commit": null
}