{
  "transactions": [
    {
      "hash": "0x7934bd18cbad097428305c8dee017b21f7bf21227b6f355dcd2e6160815cd6b5",
      "transactionType": "CALL",
      "contractName": null,
      "contractAddress": "0x55ecff559be5a8caa8210129109808bb2d7d4546",
      "function": "setPeer(uint32,bytes32)",
      "arguments": [
        "40231",
        "0x000000000000000000000000d9da3edfbc7f66eb4de1bb20868ca308375f8452"
      ],
      "transaction": {
        "from": "0x225a8ec38e757d6c22a78c5953e6d59830c52351",
        "to": "0x55ecff559be5a8caa8210129109808bb2d7d4546",
        "gas": "0x104a6",
        "value": "0x0",
        "input": "0x3400288b0000000000000000000000000000000000000000000000000000000000009d27000000000000000000000000d9da3edfbc7f66eb4de1bb20868ca308375f8452",
        "nonce": "0x8",
        "chainId": "0xaa36a7"
      },
      "additionalContracts": [],
      "isFixedGasLimit": false
    }
  ],
  "receipts": [
    {
      "status": "0x1",
      "cumulativeGasUsed": "0x6f742c",
      "logs": [
        {
          "address": "0x55ecff559be5a8caa8210129109808bb2d7d4546",
          "topics": [
            "0x238399d427b947898edb290f5ff0f9109849b1c3ba196a42e35f00c50a54b98b"
          ],
          "data": "0x0000000000000000000000000000000000000000000000000000000000009d27000000000000000000000000d9da3edfbc7f66eb4de1bb20868ca308375f8452",
          "blockHash": "0x85f99567eac849cddf276ed38d0594618977702f1f32e94003c443a02a8b3dd9",
          "blockNumber": "0x99fc9d",
          "blockTimestamp": "0x6970c548",
          "transactionHash": "0x7934bd18cbad097428305c8dee017b21f7bf21227b6f355dcd2e6160815cd6b5",
          "transactionIndex": "0x1e",
          "logIndex": "0x48",
          "removed": false
        }
      ],
      "logsBloom": "0x00000000000000000000000000000000000000000000000000000000000000000000000000000000000000000000000000000400000000000800000000000000000000000000000000000000000000000000000000000000000000000000000000000000000000000000000000000000000000000000000000000000000000000000000000000000000000000010000000000000002000000000000000000000000000000000000000000000000000000000000000000000000002000000000000000000000000000000000000000000000000000000000000040000000000000000000000000000000000000000000000000000000000000000000000000000",
      "type": "0x2",
      "transactionHash": "0x7934bd18cbad097428305c8dee017b21f7bf21227b6f355dcd2e6160815cd6b5",
      "transactionIndex": "0x1e",
      "blockHash": "0x85f99567eac849cddf276ed38d0594618977702f1f32e94003c443a02a8b3dd9",
      "blockNumber": "0x99fc9d",
      "gasUsed": "0xbcb5",
      "effectiveGasPrice": "0x40e21cbf",
      "from": "0x225a8ec38e757d6c22a78c5953e6d59830c52351",
      "to": "0x55ecff559be5a8caa8210129109808bb2d7d4546",
      "contractAddress": null
    }
  ],
  "libraries": [],
  "pending": [],
  "returns": {},
  "timestamp": 1768998219040,
  "chain": 11155111,
  "commit": null
}