{
  "transactions": [
    {
      "hash": "0xdf44bb67bfee23f7bf157d67e267b9d4e2e48453692ad40d54f9eea2c38401a1",
      "transactionType": "CALL",
      "contractName": null,
      "contractAddress": "0x0562a3508ffa50f385afb5f68e71549b0c495ab9",
      "function": "setPeer(uint32,bytes32)",
      "arguments": [
        "40231",
        "0x0000000000000000000000003521efbc4458ce9fddef05f4961324d51a65ecd2"
      ],
      "transaction": {
        "from": "0x225a8ec38e757d6c22a78c5953e6d59830c52351",
        "to": "0x0562a3508ffa50f385afb5f68e71549b0c495ab9",
        "gas": "0x1042a",
        "value": "0x0",
        "input": "0x3400288b0000000000000000000000000000000000000000000000000000000000009d270000000000000000000000003521efbc4458ce9fddef05f4961324d51a65ecd2",
        "nonce": "0x10",
        "chainId": "0xaa36a7"
      },
      "additionalContracts": [],
      "isFixedGasLimit": false
    }
  ],
  "receipts": [
    {
      "status": "0x1",
      "cumulativeGasUsed": "0x663281",
      "logs": [
        {
          "address": "0x0562a3508ffa50f385afb5f68e71549b0c495ab9",
          "topics": [
            "0x238399d427b947898edb290f5ff0f9109849b1c3ba196a42e35f00c50a54b98b"
          ],
          "data": "0x0000000000000000000000000000000000000000000000000000000000009d270000000000000000000000003521efbc4458ce9fddef05f4961324d51a65ecd2",
          "blockHash": "0x13f91c296d1bf350f028c86dc6baef9a8036978548091abd62050856ff49b17c",
          "blockNumber": "0x9a0aa6",
          "blockTimestamp": "0x697172e8",
          "transactionHash": "0xdf44bb67bfee23f7bf157d67e267b9d4e2e48453692ad40d54f9eea2c38401a1",
          "transactionIndex": "0x2c",
          "logIndex": "0x35",
          "removed": false
        }
      ],
      "logsBloom": "0x00000000000000000000000000000000000000000000000000000000000000000000000000000000000000000000000000000000000000000800000000000000000000000000000000000000000000000000080000000000001000000000000000000000000000000000000000000000000000000000000000000000000000000000000000000000000000000000000000000000000000000000000000000000000000000000000000000000000000000000000000000000000002000000000000000000000000000000000000000000000000000000000000040000000000000000000000000000000000000000000000000001000000000000000000000000",
      "type": "0x2",
      "transactionHash": "0xdf44bb67bfee23f7bf157d67e267b9d4e2e48453692ad40d54f9eea2c38401a1",
      "transactionIndex": "0x2c",
      "blockHash": "0x13f91c296d1bf350f028c86dc6baef9a8036978548091abd62050856ff49b17c",
      "blockNumber": "0x9a0aa6",
      "gasUsed": "0xbc5c",
      "effectiveGasPrice": "0x3edbae4d",
      "from": "0x225a8ec38e757d6c22a78c5953e6d59830c52351",
      "to": "0x0562a3508ffa50f385afb5f68e71549b0c495ab9",
      "contractAddress": null
    }
  ],
  "libraries": [],
  "pending": [],
  "returns": {},
  "timestamp": 1769042665256,
  "chain": 11155111,
  "commit": null
}