{
  "transactions": [
    {
      "hash": "0x3a4089312c12b743e0d05df1469d83f9fcbc2623459527dd541ce475c995931b",
      "transactionType": "CALL",
      "contractName": null,
      "contractAddress": "0x0562a3508ffa50f385afb5f68e71549b0c495ab9",
      "function": "setPeer(uint32,bytes32)",
      "arguments": [
        "40231",
        "0x0000000000000000000000003521efbc4458ce9fddef05f4961324d51a65ecd2"
      ],
      "transaction": {
        "from": "0x225a8ec38e757d6c22a78c5953e6d59830c52351",
        "to": "0x0562a3508ffa50f385afb5f68e71549b0c495ab9",
        "gas": "0x98cd",
        "value": "0x0",
        "input": "0x3400288b0000000000000000000000000000000000000000000000000000000000009d270000000000000000000000003521efbc4458ce9fddef05f4961324d51a65ecd2",
        "nonce": "0x22",
        "chainId": "0xaa36a7"
      },
      "additionalContracts": [],
      "isFixedGasLimit": false
    },
    {
      "hash": "0x76aa861da748e889089cb433c1bfe39050cba7772365f3f6ee657945628c0ca3",
      "transactionType": "CALL",
      "contractName": null,
      "contractAddress": "0x0562a3508ffa50f385afb5f68e71549b0c495ab9",
      "function": "setPeer(uint32,bytes32)",
      "arguments": [
        "40232",
        "0x000000000000000000000000b8499a427fd120f289ac198b41175460b61afec6"
      ],
      "transaction": {
        "from": "0x225a8ec38e757d6c22a78c5953e6d59830c52351",
        "to": "0x0562a3508ffa50f385afb5f68e71549b0c495ab9",
        "gas": "0xa7e8",
        "value": "0x0",
        "input": "0x3400288b0000000000000000000000000000000000000000000000000000000000009d28000000000000000000000000b8499a427fd120f289ac198b41175460b61afec6",
        "nonce": "0x23",
        "chainId": "0xaa36a7"
      },
      "additionalContracts": [],
      "isFixedGasLimit": false
    }
  ],
  "receipts": [
    {
      "status": "0x1",
      "cumulativeGasUsed": "0x3731c39",
      "logs": [
        {
          "address": "0x0562a3508ffa50f385afb5f68e71549b0c495ab9",
          "topics": [
            "0x238399d427b947898edb290f5ff0f9109849b1c3ba196a42e35f00c50a54b98b"
          ],
          "data": "0x0000000000000000000000000000000000000000000000000000000000009d270000000000000000000000003521efbc4458ce9fddef05f4961324d51a65ecd2",
          "blockHash": "0x73a0e57508aa720ddf1058c3423db7bae692c22a8350bc2fdbe18915d7d2b5f0",
          "blockNumber": "0x9a4782",
          "blockTimestamp": "0x69744f3c",
          "transactionHash": "0x76aa861da748e889089cb433c1bfe39050cba7772365f3f6ee657945628c0ca3",
          "transactionIndex": "0x31",
          "logIndex": "0x52",
          "removed": false
        }
      ],
      "logsBloom": "0x00000000000000000000000000000000000000000000000000000000000000000000000000000000000000000000000000000000000000000800000000000000000000000000000000000000000000000000080000000000001000000000000000000000000000000000000000000000000000000000000000000000000000000000000000000000000000000000000000000000000000000000000000000000000000000000000000000000000000000000000000000000000002000000000000000000000000000000000000000000000000000000000000040000000000000000000000000000000000000000000000000001000000000000000000000000",
      "type": "0x2",
      "transactionHash": "0x76aa861da748e889089cb433c1bfe39050cba7772365f3f6ee657945628c0ca3",
      "transactionIndex": "0x31",
      "blockHash": "0x73a0e57508aa720ddf1058c3423db7bae692c22a8350bc2fdbe18915d7d2b5f0",
      "blockNumber": "0x9a4782",
      "gasUsed": "0x6ea0",
      "effectiveGasPrice": "0x3b4343f9",
      "from": "0x225a8ec38e757d6c22a78c5953e6d59830c52351",
      "to": "0x0562a3508ffa50f385afb5f68e71549b0c495ab9",
      "contractAddress": null
    },
    {
      "status": "0x1",
      "cumulativeGasUsed": "0x37395c9",
      "logs": [
        {
          "address": "0x0562a3508ffa50f385afb5f68e71549b0c495ab9",
          "topics": [
            "0x238399d427b947898edb290f5ff0f9109849b1c3ba196a42e35f00c50a54b98b"
          ],
          "data": "0x0000000000000000000000000000000000000000000000000000000000009d28000000000000000000000000b8499a427fd120f289ac198b41175460b61afec6",
          "blockHash": "0x73a0e57508aa720ddf1058c3423db7bae692c22a8350bc2fdbe18915d7d2b5f0",
          "blockNumber": "0x9a4782",
          "blockTimestamp": "0x69744f3c",
          "transactionHash": "0x3a4089312c12b743e0d05df1469d83f9fcbc2623459527dd541ce475c995931b",
          "transactionIndex": "0x32",
          "logIndex": "0x53",
          "removed": false
        }
      ],
      "logsBloom": "0x00000000000000000000000000000000000000000000000000000000000000000000000000000000000000000000000000000000000000000800000000000000000000000000000000000000000000000000080000000000001000000000000000000000000000000000000000000000000000000000000000000000000000000000000000000000000000000000000000000000000000000000000000000000000000000000000000000000000000000000000000000000000002000000000000000000000000000000000000000000000000000000000000040000000000000000000000000000000000000000000000000001000000000000000000000000",
      "type": "0x2",
      "transactionHash": "0x3a4089312c12b743e0d05df1469d83f9fcbc2623459527dd541ce475c995931b",
      "transactionIndex": "0x32",
      "blockHash": "0x73a0e57508aa720ddf1058c3423db7bae692c22a8350bc2fdbe18915d7d2b5f0",
      "blockNumber": "0x9a4782",
      "gasUsed": "0x7990",
      "effectiveGasPrice": "0x3b4343f9",
      "from": "0x225a8ec38e757d6c22a78c5953e6d59830c52351",
      "to": "0x0562a3508ffa50f385afb5f68e71549b0c495ab9",
      "contractAddress": null
    }
  ],
  "libraries": [],
  "pending": [],
  "returns": {},
  "timestamp": 1769230141730,
  "chain": 11155111,
  "commit": null
}