{
  "transactions": [
    {
      "hash": "0x41b738f046cd87ce003dc8e34cfbbfa7b7718a3b4b9fcd30187ff0df015fa409",
      "transactionType": "CALL",
      "contractName": null,
      "contractAddress": "0x7aaf63ee51f7d1766f59dff3d4e4c8c379164987",
      "function": "setPeer(uint32,bytes32)",
      "arguments": [
        "40231",
        "0x000000000000000000000000dc6b56d927fb7f55a9689bf790b28bc7c25cacad"
      ],
      "transaction": {
        "from": "0x225a8ec38e757d6c22a78c5953e6d59830c52351",
        "to": "0x7aaf63ee51f7d1766f59dff3d4e4c8c379164987",
        "gas": "0x104a6",
        "value": "0x0",
        "input": "0x3400288b0000000000000000000000000000000000000000000000000000000000009d27000000000000000000000000dc6b56d927fb7f55a9689bf790b28bc7c25cacad",
        "nonce": "0x5",
        "chainId": "0xaa36a7"
      },
      "additionalContracts": [],
      "isFixedGasLimit": false
    }
  ],
  "receipts": [
    {
      "status": "0x1",
      "cumulativeGasUsed": "0x3cf9b4",
      "logs": [
        {
          "address": "0x7aaf63ee51f7d1766f59dff3d4e4c8c379164987",
          "topics": [
            "0x238399d427b947898edb290f5ff0f9109849b1c3ba196a42e35f00c50a54b98b"
          ],
          "data": "0x0000000000000000000000000000000000000000000000000000000000009d27000000000000000000000000dc6b56d927fb7f55a9689bf790b28bc7c25cacad",
          "blockHash": "0x6f59d624e40bc6755b171bc9a6301a765b9e8ccb42d4cdfdce109a6b695e3dfe",
          "blockNumber": "0x99faa0",
          "blockTimestamp": "0x6970ab80",
          "transactionHash": "0x41b738f046cd87ce003dc8e34cfbbfa7b7718a3b4b9fcd30187ff0df015fa409",
          "transactionIndex": "0x17",
          "logIndex": "0x3b",
          "removed": false
        }
      ],
      "logsBloom": "0x00000000000000000000000000000000000000000000000000000000000000000000000000000000000000000000000000000000000000000800000000000000000000000000000000000000000000000000000000000000100000000000000000200000000000000000000000000000000000000000000000000000000000000004000000000000000000000000000000000000000000000000000000000000000000000000000000000000000000000000000000000000000002000000000000000000000000000000000000000000000000000000000000040000000000000000000000000000000000000000000000000000000000000000000000000000",
      "type": "0x2",
      "transactionHash": "0x41b738f046cd87ce003dc8e34cfbbfa7b7718a3b4b9fcd30187ff0df015fa409",
      "transactionIndex": "0x17",
      "blockHash": "0x6f59d624e40bc6755b171bc9a6301a765b9e8ccb42d4cdfdce109a6b695e3dfe",
      "blockNumber": "0x99faa0",
      "gasUsed": "0xbcb5",
      "effectiveGasPrice": "0x3f97df1a",
      "from": "0x225a8ec38e757d6c22a78c5953e6d59830c52351",
      "to": "0x7aaf63ee51f7d1766f59dff3d4e4c8c379164987",
      "contractAddress": null
    }
  ],
  "libraries": [],
  "pending": [],
  "returns": {},
  "timestamp": 1768991618558,
  "chain": 11155111,
  "commit": null
}