{
  "transactions": [
    {
      "hash": "0xd45da0738689e288c90fcaafca8aff99e8a4033cc9c4aeecaee5cef422c791bc",
      "transactionType": "CALL",
      "contractName": null,
      "contractAddress": "0x0562a3508ffa50f385afb5f68e71549b0c495ab9",
      "function": "setPeer(uint32,bytes32)",
      "arguments": [
        "40231",
        "0x0000000000000000000000003521efbc4458ce9fddef05f4961324d51a65ecd2"
      ],
      "transaction": {
        "from": "0x225a8ec38e757d6c22a78c5953e6d59830c52351",
        "to": "0x0562a3508ffa50f385afb5f68e71549b0c495ab9",
        "gas": "0x98cd",
        "value": "0x0",
        "input": "0x3400288b0000000000000000000000000000000000000000000000000000000000009d270000000000000000000000003521efbc4458ce9fddef05f4961324d51a65ecd2",
        "nonce": "0x1c",
        "chainId": "0xaa36a7"
      },
      "additionalContracts": [],
      "isFixedGasLimit": false
    },
    {
      "hash": "0x711c9e1fc88e25a648a30f69555b8ca76e45448aa95091359a8fee8721075875",
      "transactionType": "CALL",
      "contractName": null,
      "contractAddress": "0x0562a3508ffa50f385afb5f68e71549b0c495ab9",
      "function": "setPeer(uint32,bytes32)",
      "arguments": [
        "40232",
        "0x000000000000000000000000f4b56e581759b6b64a431bbc36fc1b799f140e41"
      ],
      "transaction": {
        "from": "0x225a8ec38e757d6c22a78c5953e6d59830c52351",
        "to": "0x0562a3508ffa50f385afb5f68e71549b0c495ab9",
        "gas": "0xa7e8",
        "value": "0x0",
        "input": "0x3400288b0000000000000000000000000000000000000000000000000000000000009d28000000000000000000000000f4b56e581759b6b64a431bbc36fc1b799f140e41",
        "nonce": "0x1d",
        "chainId": "0xaa36a7"
      },
      "additionalContracts": [],
      "isFixedGasLimit": false
    }
  ],
  "receipts": [
    {
      "status": "0x1",
      "cumulativeGasUsed": "0x40fa90",
      "logs": [
        {
          "address": "0x0562a3508ffa50f385afb5f68e71549b0c495ab9",
          "topics": [
            "0x238399d427b947898edb290f5ff0f9109849b1c3ba196a42e35f00c50a54b98b"
          ],
          "data": "0x0000000000000000000000000000000000000000000000000000000000009d270000000000000000000000003521efbc4458ce9fddef05f4961324d51a65ecd2",
          "blockHash": "0x22204f461d033c9dd1a499bf2f3cd69a076c3a17133c9326809810687f2a7c32",
          "blockNumber": "0x9a40a1",
          "blockTimestamp": "0x6973fc8c",
          "transactionHash": "0xd45da0738689e288c90fcaafca8aff99e8a4033cc9c4aeecaee5cef422c791bc",
          "transactionIndex": "0x28",
          "logIndex": "0x3f",
          "removed": false
        }
      ],
      "logsBloom": "0x00000000000000000000000000000000000000000000000000000000000000000000000000000000000000000000000000000000000000000800000000000000000000000000000000000000000000000000080000000000001000000000000000000000000000000000000000000000000000000000000000000000000000000000000000000000000000000000000000000000000000000000000000000000000000000000000000000000000000000000000000000000000002000000000000000000000000000000000000000000000000000000000000040000000000000000000000000000000000000000000000000001000000000000000000000000",
      "type": "0x2",
      "transactionHash": "0xd45da0738689e288c90fcaafca8aff99e8a4033cc9c4aeecaee5cef422c791bc",
      "transactionIndex": "0x28",
      "blockHash": "0x22204f461d033c9dd1a499bf2f3cd69a076c3a17133c9326809810687f2a7c32",
      "blockNumber": "0x9a40a1",
      "gasUsed": "0x6ea0",
      "effectiveGasPrice": "0x3cd98f3a",
      "from": "0x225a8ec38e757d6c22a78c5953e6d59830c52351",
      "to": "0x0562a3508ffa50f385afb5f68e71549b0c495ab9",
      "contractAddress": null
    },
    {
      "status": "0x1",
      "cumulativeGasUsed": "0x417420",
      "logs": [
        {
          "address": "0x0562a3508ffa50f385afb5f68e71549b0c495ab9",
          "topics": [
            "0x238399d427b947898edb290f5ff0f9109849b1c3ba196a42e35f00c50a54b98b"
          ],
          "data": "0x0000000000000000000000000000000000000000000000000000000000009d28000000000000000000000000f4b56e581759b6b64a431bbc36fc1b799f140e41",
          "blockHash": "0x22204f461d033c9dd1a499bf2f3cd69a076c3a17133c9326809810687f2a7c32",
          "blockNumber": "0x9a40a1",
          "blockTimestamp": "0x6973fc8c",
          "transactionHash": "0x711c9e1fc88e25a648a30f69555b8ca76e45448aa95091359a8fee8721075875",
          "transactionIndex": "0x29",
          "logIndex": "0x40",
          "removed": false
        }
      ],
      "logsBloom": "0x00000000000000000000000000000000000000000000000000000000000000000000000000000000000000000000000000000000000000000800000000000000000000000000000000000000000000000000080000000000001000000000000000000000000000000000000000000000000000000000000000000000000000000000000000000000000000000000000000000000000000000000000000000000000000000000000000000000000000000000000000000000000002000000000000000000000000000000000000000000000000000000000000040000000000000000000000000000000000000000000000000001000000000000000000000000",
      "type": "0x2",
      "transactionHash": "0x711c9e1fc88e25a648a30f69555b8ca76e45448aa95091359a8fee8721075875",
      "transactionIndex": "0x29",
      "blockHash": "0x22204f461d033c9dd1a499bf2f3cd69a076c3a17133c9326809810687f2a7c32",
      "blockNumber": "0x9a40a1",
      "gasUsed": "0x7990",
      "effectiveGasPrice": "0x3cd98f3a",
      "from": "0x225a8ec38e757d6c22a78c5953e6d59830c52351",
      "to": "0x0562a3508ffa50f385afb5f68e71549b0c495ab9",
      "contractAddress": null
    }
  ],
  "libraries": [],
  "pending": [],
  "returns": {},
  "timestamp": 1769208974605,
  "chain": 11155111,
  "commit": null
}