{
  "transactions": [
    {
      "hash": "0xec877f0338b7606182fd4224d87c8891c0b1552a3adfc32a3e4da86777eebe57",
      "transactionType": "CALL",
      "contractName": null,
      "contractAddress": "0x0562a3508ffa50f385afb5f68e71549b0c495ab9",
      "function": "setPeer(uint32,bytes32)",
      "arguments": [
        "40231",
        "0x0000000000000000000000003521efbc4458ce9fddef05f4961324d51a65ecd2"
      ],
      "transaction": {
        "from": "0x225a8ec38e757d6c22a78c5953e6d59830c52351",
        "to": "0x0562a3508ffa50f385afb5f68e71549b0c495ab9",
        "gas": "0x98cd",
        "value": "0x0",
        "input": "0x3400288b0000000000000000000000000000000000000000000000000000000000009d270000000000000000000000003521efbc4458ce9fddef05f4961324d51a65ecd2",
        "nonce": "0x17",
        "chainId": "0xaa36a7"
      },
      "additionalContracts": [],
      "isFixedGasLimit": false
    },
    {
      "hash": "0xde005c0ce303b65cb3ee81fa2fa1220db5c78b94592b90a5209a851a4af8d859",
      "transactionType": "CALL",
      "contractName": null,
      "contractAddress": "0x0562a3508ffa50f385afb5f68e71549b0c495ab9",
      "function": "setPeer(uint32,bytes32)",
      "arguments": [
        "40232",
        "0x000000000000000000000000fbfa5024ec85e46e3ea1428183f0f5404ae6221b"
      ],
      "transaction": {
        "from": "0x225a8ec38e757d6c22a78c5953e6d59830c52351",
        "to": "0x0562a3508ffa50f385afb5f68e71549b0c495ab9",
        "gas": "0xa7e8",
        "value": "0x0",
        "input": "0x3400288b0000000000000000000000000000000000000000000000000000000000009d28000000000000000000000000fbfa5024ec85e46e3ea1428183f0f5404ae6221b",
        "nonce": "0x18",
        "chainId": "0xaa36a7"
      },
      "additionalContracts": [],
      "isFixedGasLimit": false
    }
  ],
  "receipts": [
    {
      "status": "0x1",
      "cumulativeGasUsed": "0x384b88d",
      "logs": [
        {
          "address": "0x0562a3508ffa50f385afb5f68e71549b0c495ab9",
          "topics": [
            "0x238399d427b947898edb290f5ff0f9109849b1c3ba196a42e35f00c50a54b98b"
          ],
          "data": "0x0000000000000000000000000000000000000000000000000000000000009d270000000000000000000000003521efbc4458ce9fddef05f4961324d51a65ecd2",
          "blockHash": "0x0d4bea4238e8ccb99a9e7c84e93e0f8c85a5f7a8ddb511f85a1ae63d8552fb67",
          "blockNumber": "0x9a33bb",
          "blockTimestamp": "0x697361a0",
          "transactionHash": "0xde005c0ce303b65cb3ee81fa2fa1220db5c78b94592b90a5209a851a4af8d859",
          "transactionIndex": "0x3d",
          "logIndex": "0x87",
          "removed": false
        }
      ],
      "logsBloom": "0x00000000000000000000000000000000000000000000000000000000000000000000000000000000000000000000000000000000000000000800000000000000000000000000000000000000000000000000080000000000001000000000000000000000000000000000000000000000000000000000000000000000000000000000000000000000000000000000000000000000000000000000000000000000000000000000000000000000000000000000000000000000000002000000000000000000000000000000000000000000000000000000000000040000000000000000000000000000000000000000000000000001000000000000000000000000",
      "type": "0x2",
      "transactionHash": "0xde005c0ce303b65cb3ee81fa2fa1220db5c78b94592b90a5209a851a4af8d859",
      "transactionIndex": "0x3d",
      "blockHash": "0x0d4bea4238e8ccb99a9e7c84e93e0f8c85a5f7a8ddb511f85a1ae63d8552fb67",
      "blockNumber": "0x9a33bb",
      "gasUsed": "0x6ea0",
      "effectiveGasPrice": "0x38838b7a",
      "from": "0x225a8ec38e757d6c22a78c5953e6d59830c52351",
      "to": "0x0562a3508ffa50f385afb5f68e71549b0c495ab9",
      "contractAddress": null
    },
    {
      "status": "0x1",
      "cumulativeGasUsed": "0x385321d",
      "logs": [
        {
          "address": "0x0562a3508ffa50f385afb5f68e71549b0c495ab9",
          "topics": [
            "0x238399d427b947898edb290f5ff0f9109849b1c3ba196a42e35f00c50a54b98b"
          ],
          "data": "0x0000000000000000000000000000000000000000000000000000000000009d28000000000000000000000000fbfa5024ec85e46e3ea1428183f0f5404ae6221b",
          "blockHash": "0x0d4bea4238e8ccb99a9e7c84e93e0f8c85a5f7a8ddb511f85a1ae63d8552fb67",
          "blockNumber": "0x9a33bb",
          "blockTimestamp": "0x697361a0",
          "transactionHash": "0xec877f0338b7606182fd4224d87c8891c0b1552a3adfc32a3e4da86777eebe57",
          "transactionIndex": "0x3e",
          "logIndex": "0x88",
          "removed": false
        }
      ],
      "logsBloom": "0x00000000000000000000000000000000000000000000000000000000000000000000000000000000000000000000000000000000000000000800000000000000000000000000000000000000000000000000080000000000001000000000000000000000000000000000000000000000000000000000000000000000000000000000000000000000000000000000000000000000000000000000000000000000000000000000000000000000000000000000000000000000000002000000000000000000000000000000000000000000000000000000000000040000000000000000000000000000000000000000000000000001000000000000000000000000",
      "type": "0x2",
      "transactionHash": "0xec877f0338b7606182fd4224d87c8891c0b1552a3adfc32a3e4da86777eebe57",
      "transactionIndex": "0x3e",
      "blockHash": "0x0d4bea4238e8ccb99a9e7c84e93e0f8c85a5f7a8ddb511f85a1ae63d8552fb67",
      "blockNumber": "0x9a33bb",
      "gasUsed": "0x7990",
      "effectiveGasPrice": "0x38838b7a",
      "from": "0x225a8ec38e757d6c22a78c5953e6d59830c52351",
      "to": "0x0562a3508ffa50f385afb5f68e71549b0c495ab9",
      "contractAddress": null
    }
  ],
  "libraries": [],
  "pending": [],
  "returns": {},
  "timestamp": 1769169315042,
  "chain": 11155111,
  "commit": null
}