{
  "transactions": [
    {
      "hash": "0x88bdee8f8ab56f9ec4dfe9f5c8738188f6c2b71f5b31642d77f60b03af77d08f",
      "transactionType": "CALL",
      "contractName": null,
      "contractAddress": "0x55ecff559be5a8caa8210129109808bb2d7d4546",
      "function": "setPeer(uint32,bytes32)",
      "arguments": [
        "40231",
        "0x00000000000000000000000013fee4454165eefcf3533d760bf306750ae08b01"
      ],
      "transaction": {
        "from": "0x225a8ec38e757d6c22a78c5953e6d59830c52351",
        "to": "0x55ecff559be5a8caa8210129109808bb2d7d4546",
        "gas": "0xa24c",
        "value": "0x0",
        "input": "0x3400288b0000000000000000000000000000000000000000000000000000000000009d2700000000000000000000000013fee4454165eefcf3533d760bf306750ae08b01",
        "nonce": "0xc",
        "chainId": "0xaa36a7"
      },
      "additionalContracts": [],
      "isFixedGasLimit": false
    }
  ],
  "receipts": [
    {
      "status": "0x1",
      "cumulativeGasUsed": "0x377c597",
      "logs": [
        {
          "address": "0x55ecff559be5a8caa8210129109808bb2d7d4546",
          "topics": [
            "0x238399d427b947898edb290f5ff0f9109849b1c3ba196a42e35f00c50a54b98b"
          ],
          "data": "0x0000000000000000000000000000000000000000000000000000000000009d2700000000000000000000000013fee4454165eefcf3533d760bf306750ae08b01",
          "blockHash": "0x84c51fa35e0604c990566f93affae2d9895e8ae505a8778e94a024d0edc5ae9d",
          "blockNumber": "0x99fece",
          "blockTimestamp": "0x6970e0f0",
          "transactionHash": "0x88bdee8f8ab56f9ec4dfe9f5c8738188f6c2b71f5b31642d77f60b03af77d08f",
          "transactionIndex": "0x3a",
          "logIndex": "0x72",
          "removed": false
        }
      ],
      "logsBloom": "0x00000000000000000000000000000000000000000000000000000000000000000000000000000000000000000000000000000400000000000800000000000000000000000000000000000000000000000000000000000000000000000000000000000000000000000000000000000000000000000000000000000000000000000000000000000000000000000010000000000000002000000000000000000000000000000000000000000000000000000000000000000000000002000000000000000000000000000000000000000000000000000000000000040000000000000000000000000000000000000000000000000000000000000000000000000000",
      "type": "0x2",
      "transactionHash": "0x88bdee8f8ab56f9ec4dfe9f5c8738188f6c2b71f5b31642d77f60b03af77d08f",
      "transactionIndex": "0x3a",
      "blockHash": "0x84c51fa35e0604c990566f93affae2d9895e8ae505a8778e94a024d0edc5ae9d",
      "blockNumber": "0x99fece",
      "gasUsed": "0x6ef9",
      "effectiveGasPrice": "0x399ab6ab",
      "from": "0x225a8ec38e757d6c22a78c5953e6d59830c52351",
      "to": "0x55ecff559be5a8caa8210129109808bb2d7d4546",
      "contractAddress": null
    }
  ],
  "libraries": [],
  "pending": [],
  "returns": {},
  "timestamp": 1769005297653,
  "chain": 11155111,
  "commit": null
}