{
  "transactions": [
    {
      "hash": "0x87527e34713aa0ae7a6c1d52e5d39e00adf327cf9d2c16ae1277d9cbf5f4ea9c",
      "transactionType": "CALL",
      "contractName": null,
      "contractAddress": "0x0562a3508ffa50f385afb5f68e71549b0c495ab9",
      "function": "setPeer(uint32,bytes32)",
      "arguments": [
        "40231",
        "0x0000000000000000000000003521efbc4458ce9fddef05f4961324d51a65ecd2"
      ],
      "transaction": {
        "from": "0x225a8ec38e757d6c22a78c5953e6d59830c52351",
        "to": "0x0562a3508ffa50f385afb5f68e71549b0c495ab9",
        "gas": "0x98cd",
        "value": "0x0",
        "input": "0x3400288b0000000000000000000000000000000000000000000000000000000000009d270000000000000000000000003521efbc4458ce9fddef05f4961324d51a65ecd2",
        "nonce": "0x25",
        "chainId": "0xaa36a7"
      },
      "additionalContracts": [],
      "isFixedGasLimit": false
    },
    {
      "hash": "0x5c34ab144ba59903f2e71d99ecf7feec86ce7ea6e1138cb5bf3025caadd35809",
      "transactionType": "CALL",
      "contractName": null,
      "contractAddress": "0x0562a3508ffa50f385afb5f68e71549b0c495ab9",
      "function": "setPeer(uint32,bytes32)",
      "arguments": [
        "40232",
        "0x000000000000000000000000b8499a427fd120f289ac198b41175460b61afec6"
      ],
      "transaction": {
        "from": "0x225a8ec38e757d6c22a78c5953e6d59830c52351",
        "to": "0x0562a3508ffa50f385afb5f68e71549b0c495ab9",
        "gas": "0x98cd",
        "value": "0x0",
        "input": "0x3400288b0000000000000000000000000000000000000000000000000000000000009d28000000000000000000000000b8499a427fd120f289ac198b41175460b61afec6",
        "nonce": "0x26",
        "chainId": "0xaa36a7"
      },
      "additionalContracts": [],
      "isFixedGasLimit": false
    }
  ],
  "receipts": [
    {
      "status": "0x1",
      "cumulativeGasUsed": "0x379cc0b",
      "logs": [
        {
          "address": "0x0562a3508ffa50f385afb5f68e71549b0c495ab9",
          "topics": [
            "0x238399d427b947898edb290f5ff0f9109849b1c3ba196a42e35f00c50a54b98b"
          ],
          "data": "0x0000000000000000000000000000000000000000000000000000000000009d270000000000000000000000003521efbc4458ce9fddef05f4961324d51a65ecd2",
          "blockHash": "0x2e47d33b3e40c989242bba630db5a4171a8b8601cdd4d6835a8622419d5d2a63",
          "blockNumber": "0x9a47bc",
          "blockTimestamp": "0x697451f4",
          "transactionHash": "0x87527e34713aa0ae7a6c1d52e5d39e00adf327cf9d2c16ae1277d9cbf5f4ea9c",
          "transactionIndex": "0x3f",
          "logIndex": "0x86",
          "removed": false
        }
      ],
      "logsBloom": "0x00000000000000000000000000000000000000000000000000000000000000000000000000000000000000000000000000000000000000000800000000000000000000000000000000000000000000000000080000000000001000000000000000000000000000000000000000000000000000000000000000000000000000000000000000000000000000000000000000000000000000000000000000000000000000000000000000000000000000000000000000000000000002000000000000000000000000000000000000000000000000000000000000040000000000000000000000000000000000000000000000000001000000000000000000000000",
      "type": "0x2",
      "transactionHash": "0x87527e34713aa0ae7a6c1d52e5d39e00adf327cf9d2c16ae1277d9cbf5f4ea9c",
      "transactionIndex": "0x3f",
      "blockHash": "0x2e47d33b3e40c989242bba630db5a4171a8b8601cdd4d6835a8622419d5d2a63",
      "blockNumber": "0x9a47bc",
      "gasUsed": "0x6ea0",
      "effectiveGasPrice": "0x39caa3a3",
      "from": "0x225a8ec38e757d6c22a78c5953e6d59830c52351",
      "to": "0x0562a3508ffa50f385afb5f68e71549b0c495ab9",
      "contractAddress": null
    },
    {
      "status": "0x1",
      "cumulativeGasUsed": "0x37a3aab",
      "logs": [
        {
          "address": "0x0562a3508ffa50f385afb5f68e71549b0c495ab9",
          "topics": [
            "0x238399d427b947898edb290f5ff0f9109849b1c3ba196a42e35f00c50a54b98b"
          ],
          "data": "0x0000000000000000000000000000000000000000000000000000000000009d28000000000000000000000000b8499a427fd120f289ac198b41175460b61afec6",
          "blockHash": "0x2e47d33b3e40c989242bba630db5a4171a8b8601cdd4d6835a8622419d5d2a63",
          "blockNumber": "0x9a47bc",
          "blockTimestamp": "0x697451f4",
          "transactionHash": "0x5c34ab144ba59903f2e71d99ecf7feec86ce7ea6e1138cb5bf3025caadd35809",
          "transactionIndex": "0x40",
          "logIndex": "0x87",
          "removed": false
        }
      ],
      "logsBloom": "0x00000000000000000000000000000000000000000000000000000000000000000000000000000000000000000000000000000000000000000800000000000000000000000000000000000000000000000000080000000000001000000000000000000000000000000000000000000000000000000000000000000000000000000000000000000000000000000000000000000000000000000000000000000000000000000000000000000000000000000000000000000000000002000000000000000000000000000000000000000000000000000000000000040000000000000000000000000000000000000000000000000001000000000000000000000000",
      "type": "0x2",
      "transactionHash": "0x5c34ab144ba59903f2e71d99ecf7feec86ce7ea6e1138cb5bf3025caadd35809",
      "transactionIndex": "0x40",
      "blockHash": "0x2e47d33b3e40c989242bba630db5a4171a8b8601cdd4d6835a8622419d5d2a63",
      "blockNumber": "0x9a47bc",
      "gasUsed": "0x6ea0",
      "effectiveGasPrice": "0x39caa3a3",
      "from": "0x225a8ec38e757d6c22a78c5953e6d59830c52351",
      "to": "0x0562a3508ffa50f385afb5f68e71549b0c495ab9",
      "contractAddress": null
    }
  ],
  "libraries": [],
  "pending": [],
  "returns": {},
  "timestamp": 1769230837327,
  "chain": 11155111,
  "commit": null
}