{
  "transactions": [
    {
      "hash": "0x1697603fb328c481d573d8faf3e48eea41ab62ae3ab7271ea291742f8ab29c73",
      "transactionType": "CALL",
      "contractName": null,
      "contractAddress": "0x0562a3508ffa50f385afb5f68e71549b0c495ab9",
      "function": "setPeer(uint32,bytes32)",
      "arguments": [
        "40231",
        "0x0000000000000000000000003521efbc4458ce9fddef05f4961324d51a65ecd2"
      ],
      "transaction": {
        "from": "0x225a8ec38e757d6c22a78c5953e6d59830c52351",
        "to": "0x0562a3508ffa50f385afb5f68e71549b0c495ab9",
        "gas": "0x98cd",
        "value": "0x0",
        "input": "0x3400288b0000000000000000000000000000000000000000000000000000000000009d270000000000000000000000003521efbc4458ce9fddef05f4961324d51a65ecd2",
        "nonce": "0x15",
        "chainId": "0xaa36a7"
      },
      "additionalContracts": [],
      "isFixedGasLimit": false
    },
    {
      "hash": "0xb229ffa17e866b0861289c20c38efc1b3ee2e07f17f33bec77ae1e859309e343",
      "transactionType": "CALL",
      "contractName": null,
      "contractAddress": "0x0562a3508ffa50f385afb5f68e71549b0c495ab9",
      "function": "setPeer(uint32,bytes32)",
      "arguments": [
        "40232",
        "0x000000000000000000000000f4b56e581759b6b64a431bbc36fc1b799f140e41"
      ],
      "transaction": {
        "from": "0x225a8ec38e757d6c22a78c5953e6d59830c52351",
        "to": "0x0562a3508ffa50f385afb5f68e71549b0c495ab9",
        "gas": "0x1042a",
        "value": "0x0",
        "input": "0x3400288b0000000000000000000000000000000000000000000000000000000000009d28000000000000000000000000f4b56e581759b6b64a431bbc36fc1b799f140e41",
        "nonce": "0x16",
        "chainId": "0xaa36a7"
      },
      "additionalContracts": [],
      "isFixedGasLimit": false
    }
  ],
  "receipts": [
    {
      "status": "0x1",
      "cumulativeGasUsed": "0x7c7954",
      "logs": [
        {
          "address": "0x0562a3508ffa50f385afb5f68e71549b0c495ab9",
          "topics": [
            "0x238399d427b947898edb290f5ff0f9109849b1c3ba196a42e35f00c50a54b98b"
          ],
          "data": "0x0000000000000000000000000000000000000000000000000000000000009d270000000000000000000000003521efbc4458ce9fddef05f4961324d51a65ecd2",
          "blockHash": "0xe8534c07590e88a7c59a286f7eb52cfe416d97040d767abf1985839f70aa8a4d",
          "blockNumber": "0x9a336a",
          "blockTimestamp": "0x69735dc8",
          "transactionHash": "0xb229ffa17e866b0861289c20c38efc1b3ee2e07f17f33bec77ae1e859309e343",
          "transactionIndex": "0x2a",
          "logIndex": "0x5f",
          "removed": false
        }
      ],
      "logsBloom": "0x00000000000000000000000000000000000000000000000000000000000000000000000000000000000000000000000000000000000000000800000000000000000000000000000000000000000000000000080000000000001000000000000000000000000000000000000000000000000000000000000000000000000000000000000000000000000000000000000000000000000000000000000000000000000000000000000000000000000000000000000000000000000002000000000000000000000000000000000000000000000000000000000000040000000000000000000000000000000000000000000000000001000000000000000000000000",
      "type": "0x2",
      "transactionHash": "0xb229ffa17e866b0861289c20c38efc1b3ee2e07f17f33bec77ae1e859309e343",
      "transactionIndex": "0x2a",
      "blockHash": "0xe8534c07590e88a7c59a286f7eb52cfe416d97040d767abf1985839f70aa8a4d",
      "blockNumber": "0x9a336a",
      "gasUsed": "0x6ea0",
      "effectiveGasPrice": "0x3d4dd365",
      "from": "0x225a8ec38e757d6c22a78c5953e6d59830c52351",
      "to": "0x0562a3508ffa50f385afb5f68e71549b0c495ab9",
      "contractAddress": null
    },
    {
      "status": "0x1",
      "cumulativeGasUsed": "0x7d35b0",
      "logs": [
        {
          "address": "0x0562a3508ffa50f385afb5f68e71549b0c495ab9",
          "topics": [
            "0x238399d427b947898edb290f5ff0f9109849b1c3ba196a42e35f00c50a54b98b"
          ],
          "data": "0x0000000000000000000000000000000000000000000000000000000000009d28000000000000000000000000f4b56e581759b6b64a431bbc36fc1b799f140e41",
          "blockHash": "0xe8534c07590e88a7c59a286f7eb52cfe416d97040d767abf1985839f70aa8a4d",
          "blockNumber": "0x9a336a",
          "blockTimestamp": "0x69735dc8",
          "transactionHash": "0x1697603fb328c481d573d8faf3e48eea41ab62ae3ab7271ea291742f8ab29c73",
          "transactionIndex": "0x2b",
          "logIndex": "0x60",
          "removed": false
        }
      ],
      "logsBloom": "0x00000000000000000000000000000000000000000000000000000000000000000000000000000000000000000000000000000000000000000800000000000000000000000000000000000000000000000000080000000000001000000000000000000000000000000000000000000000000000000000000000000000000000000000000000000000000000000000000000000000000000000000000000000000000000000000000000000000000000000000000000000000000002000000000000000000000000000000000000000000000000000000000000040000000000000000000000000000000000000000000000000001000000000000000000000000",
      "type": "0x2",
      "transactionHash": "0x1697603fb328c481d573d8faf3e48eea41ab62ae3ab7271ea291742f8ab29c73",
      "transactionIndex": "0x2b",
      "blockHash": "0xe8534c07590e88a7c59a286f7eb52cfe416d97040d767abf1985839f70aa8a4d",
      "blockNumber": "0x9a336a",
      "gasUsed": "0xbc5c",
      "effectiveGasPrice": "0x3d4dd365",
      "from": "0x225a8ec38e757d6c22a78c5953e6d59830c52351",
      "to": "0x0562a3508ffa50f385afb5f68e71549b0c495ab9",
      "contractAddress": null
    }
  ],
  "libraries": [],
  "pending": [],
  "returns": {},
  "timestamp": 1769168330130,
  "chain": 11155111,
  "commit": null
}