{
  "transactions": [
    {
      "hash": "0x39a03d76b280cdde9bff162aa3826845c739096559941c78fd07243248a21e25",
      "transactionType": "CALL",
      "contractName": null,
      "contractAddress": "0x3521efbc4458ce9fddef05f4961324d51a65ecd2",
      "function": "setPeer(uint32,bytes32)",
      "arguments": [
        "40161",
        "0x0000000000000000000000000562a3508ffa50f385afb5f68e71549b0c495ab9"
      ],
      "transaction": {
        "from": "0x225a8ec38e757d6c22a78c5953e6d59830c52351",
        "to": "0x3521efbc4458ce9fddef05f4961324d51a65ecd2",
        "gas": "0xb17b",
        "value": "0x0",
        "input": "0x3400288b0000000000000000000000000000000000000000000000000000000000009ce10000000000000000000000000562a3508ffa50f385afb5f68e71549b0c495ab9",
        "nonce": "0x10",
        "chainId": "0x66eee"
      },
      "additionalContracts": [],
      "isFixedGasLimit": false
    },
    {
      "hash": "0xb3d1a5b309a4b1f50e6a96399271757d137aa868b2be93fcd509696c9e4b08c6",
      "transactionType": "CALL",
      "contractName": null,
      "contractAddress": "0x3521efbc4458ce9fddef05f4961324d51a65ecd2",
      "function": "setPeer(uint32,bytes32)",
      "arguments": [
        "40232",
        "0x000000000000000000000000fbfa5024ec85e46e3ea1428183f0f5404ae6221b"
      ],
      "transaction": {
        "from": "0x225a8ec38e757d6c22a78c5953e6d59830c52351",
        "to": "0x3521efbc4458ce9fddef05f4961324d51a65ecd2",
        "gas": "0xbfba",
        "value": "0x0",
        "input": "0x3400288b0000000000000000000000000000000000000000000000000000000000009d28000000000000000000000000fbfa5024ec85e46e3ea1428183f0f5404ae6221b",
        "nonce": "0x11",
        "chainId": "0x66eee"
      },
      "additionalContracts": [],
      "isFixedGasLimit": false
    }
  ],
  "receipts": [
    {
      "status": "0x1",
      "cumulativeGasUsed": "0x8249",
      "logs": [
        {
          "address": "0x3521efbc4458ce9fddef05f4961324d51a65ecd2",
          "topics": [
            "0x238399d427b947898edb290f5ff0f9109849b1c3ba196a42e35f00c50a54b98b"
          ],
          "data": "0x0000000000000000000000000000000000000000000000000000000000009ce10000000000000000000000000562a3508ffa50f385afb5f68e71549b0c495ab9",
          "blockHash": "0x3b0d138b50eb38430610385c6da9144cf426f3bd4705ddebae569366d210aad0",
          "blockNumber": "0xe113eb9",
          "blockTimestamp": "0x697361ee",
          "transactionHash": "0x39a03d76b280cdde9bff162aa3826845c739096559941c78fd07243248a21e25",
          "transactionIndex": "0x1",
          "logIndex": "0x0",
          "removed": false
        }
      ],
      "logsBloom": "0x00000000000000000000000000000000000000000000000000000000000000000000000000000000000000000000000000000000000000000800000000000000000000000000000000000000000000000000000000000000000000000000000000000000000000008000000000000000000000000000000020000000000000000000000000000000000000000000000000000000000000000000000000000000000000000000000000040000000000000000000000000000000002000000000000000000000000000000000000000000000000000000000000040000000000000000000000000000000000000000000000000000000000000000000000000000",
      "type": "0x2",
      "transactionHash": "0x39a03d76b280cdde9bff162aa3826845c739096559941c78fd07243248a21e25",
      "transactionIndex": "0x1",
      "blockHash": "0x3b0d138b50eb38430610385c6da9144cf426f3bd4705ddebae569366d210aad0",
      "blockNumber": "0xe113eb9",
      "gasUsed": "0x8249",
      "effectiveGasPrice": "0x1312d00",
      "from": "0x225a8ec38e757d6c22a78c5953e6d59830c52351",
      "to": "0x3521efbc4458ce9fddef05f4961324d51a65ecd2",
      "contractAddress": null,
      "gasUsedForL1": "0x13a9",
      "l1BlockNumber": "0x9a33c0",
      "timeboosted": false
    },
    {
      "status": "0x1",
      "cumulativeGasUsed": "0x2677e",
      "logs": [
        {
          "address": "0x3521efbc4458ce9fddef05f4961324d51a65ecd2",
          "topics": [
            "0x238399d427b947898edb290f5ff0f9109849b1c3ba196a42e35f00c50a54b98b"
          ],
          "data": "0x0000000000000000000000000000000000000000000000000000000000009d28000000000000000000000000fbfa5024ec85e46e3ea1428183f0f5404ae6221b",
          "blockHash": "0xfb6d837af279eb86a20d6079607409103cf05baa7960b5f6e2bd44adb931d47a",
          "blockNumber": "0xe113ec2",
          "blockTimestamp": "0x697361f0",
          "transactionHash": "0xb3d1a5b309a4b1f50e6a96399271757d137aa868b2be93fcd509696c9e4b08c6",
          "transactionIndex": "0x3",
          "logIndex": "0x1",
          "removed": false
        }
      ],
      "logsBloom": "0x00000000000000000000000000000000000000000000000000000000000000000000000000000000000000000000000000000000000000000800000000000000000000000000000000000000000000000000000000000000000000000000000000000000000000008000000000000000000000000000000020000000000000000000000000000000000000000000000000000000000000000000000000000000000000000000000000040000000000000000000000000000000002000000000000000000000000000000000000000000000000000000000000040000000000000000000000000000000000000000000000000000000000000000000000000000",
      "type": "0x2",
      "transactionHash": "0xb3d1a5b309a4b1f50e6a96399271757d137aa868b2be93fcd509696c9e4b08c6",
      "transactionIndex": "0x3",
      "blockHash": "0xfb6d837af279eb86a20d6079607409103cf05baa7960b5f6e2bd44adb931d47a",
      "blockNumber": "0xe113ec2",
      "gasUsed": "0x8d36",
      "effectiveGasPrice": "0x13163b0",
      "from": "0x225a8ec38e757d6c22a78c5953e6d59830c52351",
      "to": "0x3521efbc4458ce9fddef05f4961324d51a65ecd2",
      "contractAddress": null,
      "gasUsedForL1": "0x13a6",
      "l1BlockNumber": "0x9a33c0",
      "timeboosted": false
    }
  ],
  "libraries": [],
  "pending": [],
  "returns": {},
  "timestamp": 1769169395487,
  "chain": 421614,
  "commit": null
}