{
  "transactions": [
    {
      "hash": "0xdefc3902245e8e04b3508213984faeebc7ba4154b21975521e1021ee06c5ce6c",
      "transactionType": "CALL",
      "contractName": null,
      "contractAddress": "0x13fee4454165eefcf3533d760bf306750ae08b01",
      "function": "setPeer(uint32,bytes32)",
      "arguments": [
        "40161",
        "0x00000000000000000000000055ecff559be5a8caa8210129109808bb2d7d4546"
      ],
      "transaction": {
        "from": "0x225a8ec38e757d6c22a78c5953e6d59830c52351",
        "to": "0x13fee4454165eefcf3533d760bf306750ae08b01",
        "gas": "0xb488",
        "value": "0x0",
        "input": "0x3400288b0000000000000000000000000000000000000000000000000000000000009ce100000000000000000000000055ecff559be5a8caa8210129109808bb2d7d4546",
        "nonce": "0xa",
        "chainId": "0x66eee"
      },
      "additionalContracts": [],
      "isFixedGasLimit": false
    }
  ],
  "receipts": [
    {
      "status": "0x1",
      "cumulativeGasUsed": "0x8435",
      "logs": [
        {
          "address": "0x13fee4454165eefcf3533d760bf306750ae08b01",
          "topics": [
            "0x238399d427b947898edb290f5ff0f9109849b1c3ba196a42e35f00c50a54b98b"
          ],
          "data": "0x0000000000000000000000000000000000000000000000000000000000009ce100000000000000000000000055ecff559be5a8caa8210129109808bb2d7d4546",
          "blockHash": "0xc2b45dc431d06f339e19ddb37a92a7b544943bd629796efb1af314a085374136",
          "blockNumber": "0xe09550c",
          "blockTimestamp": "0x6970e6c6",
          "transactionHash": "0xdefc3902245e8e04b3508213984faeebc7ba4154b21975521e1021ee06c5ce6c",
          "transactionIndex": "0x1",
          "logIndex": "0x0",
          "removed": false
        }
      ],
      "logsBloom": "0x00000000000000000000000000000000000000000000000000000000000000000000000040000000000000000000000000000000000000000800000000000000000000000000000000000000000000000000000000000000000000000000000000000000000000000000000000000000020000000000000000000000000000000000000000000000000000000000000000000000000000000000000000000000000000000000000000000000000000000000000000000000000002000000000000000000000000000000000000000000000000000000200000040000000000000000000000000000000000000000000000000000000000000000000000000000",
      "type": "0x2",
      "transactionHash": "0xdefc3902245e8e04b3508213984faeebc7ba4154b21975521e1021ee06c5ce6c",
      "transactionIndex": "0x1",
      "blockHash": "0xc2b45dc431d06f339e19ddb37a92a7b544943bd629796efb1af314a085374136",
      "blockNumber": "0xe09550c",
      "gasUsed": "0x8435",
      "effectiveGasPrice": "0x1318ac0",
      "from": "0x225a8ec38e757d6c22a78c5953e6d59830c52351",
      "to": "0x13fee4454165eefcf3533d760bf306750ae08b01",
      "contractAddress": null,
      "gasUsedForL1": "0x153c",
      "l1BlockNumber": "0x99ff41",
      "timeboosted": false
    }
  ],
  "libraries": [],
  "pending": [],
  "returns": {},
  "timestamp": 1769006794078,
  "chain": 421614,
  "commit": null
}