{
  "transactions": [
    {
      "hash": "0x8ea1acd17cce9318bc6a3677286fce3c2cf24b6b360b883a79263479ed5a0db9",
      "transactionType": "CALL",
      "contractName": null,
      "contractAddress": "0x3521efbc4458ce9fddef05f4961324d51a65ecd2",
      "function": "setPeer(uint32,bytes32)",
      "arguments": [
        "40161",
        "0x0000000000000000000000000562a3508ffa50f385afb5f68e71549b0c495ab9"
      ],
      "transaction": {
        "from": "0x225a8ec38e757d6c22a78c5953e6d59830c52351",
        "to": "0x3521efbc4458ce9fddef05f4961324d51a65ecd2",
        "gas": "0xb71b",
        "value": "0x0",
        "input": "0x3400288b0000000000000000000000000000000000000000000000000000000000009ce10000000000000000000000000562a3508ffa50f385afb5f68e71549b0c495ab9",
        "nonce": "0x12",
        "chainId": "0x66eee"
      },
      "additionalContracts": [],
      "isFixedGasLimit": false
    },
    {
      "hash": "0xb52436d298a6912201bbe81706e419db25bcd7e789d43cae3553d74926c96b26",
      "transactionType": "CALL",
      "contractName": null,
      "contractAddress": "0x3521efbc4458ce9fddef05f4961324d51a65ecd2",
      "function": "setPeer(uint32,bytes32)",
      "arguments": [
        "40232",
        "0x000000000000000000000000f4b56e581759b6b64a431bbc36fc1b799f140e41"
      ],
      "transaction": {
        "from": "0x225a8ec38e757d6c22a78c5953e6d59830c52351",
        "to": "0x3521efbc4458ce9fddef05f4961324d51a65ecd2",
        "gas": "0xc559",
        "value": "0x0",
        "input": "0x3400288b0000000000000000000000000000000000000000000000000000000000009d28000000000000000000000000f4b56e581759b6b64a431bbc36fc1b799f140e41",
        "nonce": "0x13",
        "chainId": "0x66eee"
      },
      "additionalContracts": [],
      "isFixedGasLimit": false
    }
  ],
  "receipts": [
    {
      "status": "0x1",
      "cumulativeGasUsed": "0x85b9",
      "logs": [
        {
          "address": "0x3521efbc4458ce9fddef05f4961324d51a65ecd2",
          "topics": [
            "0x238399d427b947898edb290f5ff0f9109849b1c3ba196a42e35f00c50a54b98b"
          ],
          "data": "0x0000000000000000000000000000000000000000000000000000000000009ce10000000000000000000000000562a3508ffa50f385afb5f68e71549b0c495ab9",
          "blockHash": "0xc478f7c0697f259bbc2877e1e11dd37e8142cd545c4fa9319fdc0de8f763fa38",
          "blockNumber": "0xe134133",
          "blockTimestamp": "0x6973fca2",
          "transactionHash": "0x8ea1acd17cce9318bc6a3677286fce3c2cf24b6b360b883a79263479ed5a0db9",
          "transactionIndex": "0x1",
          "logIndex": "0x0",
          "removed": false
        }
      ],
      "logsBloom": "0x00000000000000000000000000000000000000000000000000000000000000000000000000000000000000000000000000000000000000000800000000000000000000000000000000000000000000000000000000000000000000000000000000000000000000008000000000000000000000000000000020000000000000000000000000000000000000000000000000000000000000000000000000000000000000000000000000040000000000000000000000000000000002000000000000000000000000000000000000000000000000000000000000040000000000000000000000000000000000000000000000000000000000000000000000000000",
      "type": "0x2",
      "transactionHash": "0x8ea1acd17cce9318bc6a3677286fce3c2cf24b6b360b883a79263479ed5a0db9",
      "transactionIndex": "0x1",
      "blockHash": "0xc478f7c0697f259bbc2877e1e11dd37e8142cd545c4fa9319fdc0de8f763fa38",
      "blockNumber": "0xe134133",
      "gasUsed": "0x85b9",
      "effectiveGasPrice": "0x1318ac0",
      "from": "0x225a8ec38e757d6c22a78c5953e6d59830c52351",
      "to": "0x3521efbc4458ce9fddef05f4961324d51a65ecd2",
      "contractAddress": null,
      "gasUsedForL1": "0x1719",
      "l1BlockNumber": "0x9a40a2",
      "timeboosted": false
    },
    {
      "status": "0x1",
      "cumulativeGasUsed": "0x90b1",
      "logs": [
        {
          "address": "0x3521efbc4458ce9fddef05f4961324d51a65ecd2",
          "topics": [
            "0x238399d427b947898edb290f5ff0f9109849b1c3ba196a42e35f00c50a54b98b"
          ],
          "data": "0x0000000000000000000000000000000000000000000000000000000000009d28000000000000000000000000f4b56e581759b6b64a431bbc36fc1b799f140e41",
          "blockHash": "0xe797938ae1535cb60c3d3a1127c81853f0ddb1f3fabd86ffdc5644ce46c4b3d7",
          "blockNumber": "0xe13413b",
          "blockTimestamp": "0x6973fca4",
          "transactionHash": "0xb52436d298a6912201bbe81706e419db25bcd7e789d43cae3553d74926c96b26",
          "transactionIndex": "0x1",
          "logIndex": "0x0",
          "removed": false
        }
      ],
      "logsBloom": "0x00000000000000000000000000000000000000000000000000000000000000000000000000000000000000000000000000000000000000000800000000000000000000000000000000000000000000000000000000000000000000000000000000000000000000008000000000000000000000000000000020000000000000000000000000000000000000000000000000000000000000000000000000000000000000000000000000040000000000000000000000000000000002000000000000000000000000000000000000000000000000000000000000040000000000000000000000000000000000000000000000000000000000000000000000000000",
      "type": "0x2",
      "transactionHash": "0xb52436d298a6912201bbe81706e419db25bcd7e789d43cae3553d74926c96b26",
      "transactionIndex": "0x1",
      "blockHash": "0xe797938ae1535cb60c3d3a1127c81853f0ddb1f3fabd86ffdc5644ce46c4b3d7",
      "blockNumber": "0xe13413b",
      "gasUsed": "0x90b1",
      "effectiveGasPrice": "0x1312d00",
      "from": "0x225a8ec38e757d6c22a78c5953e6d59830c52351",
      "to": "0x3521efbc4458ce9fddef05f4961324d51a65ecd2",
      "contractAddress": null,
      "gasUsedForL1": "0x1721",
      "l1BlockNumber": "0x9a40a2",
      "timeboosted": false
    }
  ],
  "libraries": [],
  "pending": [],
  "returns": {},
  "timestamp": 1769209000395,
  "chain": 421614,
  "commit": null
}