{
  "transactions": [
    {
      "hash": "0xaec3f7fca22f511e991a0fd003948602a4f6c41241ae471c737be3ebd11c3b4b",
      "transactionType": "CALL",
      "contractName": null,
      "contractAddress": "0x3521efbc4458ce9fddef05f4961324d51a65ecd2",
      "function": "setPeer(uint32,bytes32)",
      "arguments": [
        "40161",
        "0x0000000000000000000000000562a3508ffa50f385afb5f68e71549b0c495ab9"
      ],
      "transaction": {
        "from": "0x225a8ec38e757d6c22a78c5953e6d59830c52351",
        "to": "0x3521efbc4458ce9fddef05f4961324d51a65ecd2",
        "gas": "0xc13f",
        "value": "0x0",
        "input": "0x3400288b0000000000000000000000000000000000000000000000000000000000009ce10000000000000000000000000562a3508ffa50f385afb5f68e71549b0c495ab9",
        "nonce": "0xe",
        "chainId": "0x66eee"
      },
      "additionalContracts": [],
      "isFixedGasLimit": false
    },
    {
      "hash": "0x7b0cc3e9cf3cbefd81dca452a7adabc21e3aa023db7af506f7a18c9f42557406",
      "transactionType": "CALL",
      "contractName": null,
      "contractAddress": "0x3521efbc4458ce9fddef05f4961324d51a65ecd2",
      "function": "setPeer(uint32,bytes32)",
      "arguments": [
        "40232",
        "0x000000000000000000000000f4b56e581759b6b64a431bbc36fc1b799f140e41"
      ],
      "transaction": {
        "from": "0x225a8ec38e757d6c22a78c5953e6d59830c52351",
        "to": "0x3521efbc4458ce9fddef05f4961324d51a65ecd2",
        "gas": "0x12891",
        "value": "0x0",
        "input": "0x3400288b0000000000000000000000000000000000000000000000000000000000009d28000000000000000000000000f4b56e581759b6b64a431bbc36fc1b799f140e41",
        "nonce": "0xf",
        "chainId": "0x66eee"
      },
      "additionalContracts": [],
      "isFixedGasLimit": false
    }
  ],
  "receipts": [
    {
      "status": "0x1",
      "cumulativeGasUsed": "0x8bfc",
      "logs": [
        {
          "address": "0x3521efbc4458ce9fddef05f4961324d51a65ecd2",
          "topics": [
            "0x238399d427b947898edb290f5ff0f9109849b1c3ba196a42e35f00c50a54b98b"
          ],
          "data": "0x0000000000000000000000000000000000000000000000000000000000009ce10000000000000000000000000562a3508ffa50f385afb5f68e71549b0c495ab9",
          "blockHash": "0x1e8ccaf6d8d34e101a0cd81e9292c2b569513e45cb0ba01122a635cb41dff7cb",
          "blockNumber": "0xe113130",
          "blockTimestamp": "0x69735df6",
          "transactionHash": "0xaec3f7fca22f511e991a0fd003948602a4f6c41241ae471c737be3ebd11c3b4b",
          "transactionIndex": "0x1",
          "logIndex": "0x0",
          "removed": false
        }
      ],
      "logsBloom": "0x00000000000000000000000000000000000000000000000000000000000000000000000000000000000000000000000000000000000000000800000000000000000000000000000000000000000000000000000000000000000000000000000000000000000000008000000000000000000000000000000020000000000000000000000000000000000000000000000000000000000000000000000000000000000000000000000000040000000000000000000000000000000002000000000000000000000000000000000000000000000000000000000000040000000000000000000000000000000000000000000000000000000000000000000000000000",
      "type": "0x2",
      "transactionHash": "0xaec3f7fca22f511e991a0fd003948602a4f6c41241ae471c737be3ebd11c3b4b",
      "transactionIndex": "0x1",
      "blockHash": "0x1e8ccaf6d8d34e101a0cd81e9292c2b569513e45cb0ba01122a635cb41dff7cb",
      "blockNumber": "0xe113130",
      "gasUsed": "0x8bfc",
      "effectiveGasPrice": "0x13163b0",
      "from": "0x225a8ec38e757d6c22a78c5953e6d59830c52351",
      "to": "0x3521efbc4458ce9fddef05f4961324d51a65ecd2",
      "contractAddress": null,
      "gasUsedForL1": "0x1d5c",
      "l1BlockNumber": "0x9a336c",
      "timeboosted": false
    },
    {
      "status": "0x1",
      "cumulativeGasUsed": "0xb10c0",
      "logs": [
        {
          "address": "0x3521efbc4458ce9fddef05f4961324d51a65ecd2",
          "topics": [
            "0x238399d427b947898edb290f5ff0f9109849b1c3ba196a42e35f00c50a54b98b"
          ],
          "data": "0x0000000000000000000000000000000000000000000000000000000000009d28000000000000000000000000f4b56e581759b6b64a431bbc36fc1b799f140e41",
          "blockHash": "0xa51c14897990c0ef188ec32cf73338d602227c4941ea92dff0e07e59bbab9837",
          "blockNumber": "0xe113139",
          "blockTimestamp": "0x69735df9",
          "transactionHash": "0x7b0cc3e9cf3cbefd81dca452a7adabc21e3aa023db7af506f7a18c9f42557406",
          "transactionIndex": "0x3",
          "logIndex": "0xc",
          "removed": false
        }
      ],
      "logsBloom": "0x00000000000000000000000000000000000000000000000000000000000000000000000000000000000000000000000000000000000000000800000000000000000000000000000000000000000000000000000000000000000000000000000000000000000000008000000000000000000000000000000020000000000000000000000000000000000000000000000000000000000000000000000000000000000000000000000000040000000000000000000000000000000002000000000000000000000000000000000000000000000000000000000000040000000000000000000000000000000000000000000000000000000000000000000000000000",
      "type": "0x2",
      "transactionHash": "0x7b0cc3e9cf3cbefd81dca452a7adabc21e3aa023db7af506f7a18c9f42557406",
      "transactionIndex": "0x3",
      "blockHash": "0xa51c14897990c0ef188ec32cf73338d602227c4941ea92dff0e07e59bbab9837",
      "blockNumber": "0xe113139",
      "gasUsed": "0xd9dd",
      "effectiveGasPrice": "0x1318ac0",
      "from": "0x225a8ec38e757d6c22a78c5953e6d59830c52351",
      "to": "0x3521efbc4458ce9fddef05f4961324d51a65ecd2",
      "contractAddress": null,
      "gasUsedForL1": "0x1d81",
      "l1BlockNumber": "0x9a336c",
      "timeboosted": false
    }
  ],
  "libraries": [],
  "pending": [],
  "returns": {},
  "timestamp": 1769168380997,
  "chain": 421614,
  "commit": null
}