{
  "transactions": [
    {
      "hash": "0x103999471ec03961201a336562a64103beae38ea71bf2c03412ee106d405aaf5",
      "transactionType": "CALL",
      "contractName": null,
      "contractAddress": "0x13fee4454165eefcf3533d760bf306750ae08b01",
      "function": "setPeer(uint32,bytes32)",
      "arguments": [
        "40161",
        "0x00000000000000000000000055ecff559be5a8caa8210129109808bb2d7d4546"
      ],
      "transaction": {
        "from": "0x225a8ec38e757d6c22a78c5953e6d59830c52351",
        "to": "0x13fee4454165eefcf3533d760bf306750ae08b01",
        "gas": "0x10f39",
        "value": "0x0",
        "input": "0x3400288b0000000000000000000000000000000000000000000000000000000000009ce100000000000000000000000055ecff559be5a8caa8210129109808bb2d7d4546",
        "nonce": "0x9",
        "chainId": "0x66eee"
      },
      "additionalContracts": [],
      "isFixedGasLimit": false
    }
  ],
  "receipts": [
    {
      "status": "0x1",
      "cumulativeGasUsed": "0xca4b",
      "logs": [
        {
          "address": "0x13fee4454165eefcf3533d760bf306750ae08b01",
          "topics": [
            "0x238399d427b947898edb290f5ff0f9109849b1c3ba196a42e35f00c50a54b98b"
          ],
          "data": "0x0000000000000000000000000000000000000000000000000000000000009ce100000000000000000000000055ecff559be5a8caa8210129109808bb2d7d4546",
          "blockHash": "0xe84709fde5326edc874d18ba9d5cdeae6842a13a734f035008a7b66fc59d1590",
          "blockNumber": "0xe0949bc",
          "blockTimestamp": "0x6970e300",
          "transactionHash": "0x103999471ec03961201a336562a64103beae38ea71bf2c03412ee106d405aaf5",
          "transactionIndex": "0x1",
          "logIndex": "0x0",
          "removed": false
        }
      ],
      "logsBloom": "0x00000000000000000000000000000000000000000000000000000000000000000000000040000000000000000000000000000000000000000800000000000000000000000000000000000000000000000000000000000000000000000000000000000000000000000000000000000000020000000000000000000000000000000000000000000000000000000000000000000000000000000000000000000000000000000000000000000000000000000000000000000000000002000000000000000000000000000000000000000000000000000000200000040000000000000000000000000000000000000000000000000000000000000000000000000000",
      "type": "0x2",
      "transactionHash": "0x103999471ec03961201a336562a64103beae38ea71bf2c03412ee106d405aaf5",
      "transactionIndex": "0x1",
      "blockHash": "0xe84709fde5326edc874d18ba9d5cdeae6842a13a734f035008a7b66fc59d1590",
      "blockNumber": "0xe0949bc",
      "gasUsed": "0xca4b",
      "effectiveGasPrice": "0x1312d00",
      "from": "0x225a8ec38e757d6c22a78c5953e6d59830c52351",
      "to": "0x13fee4454165eefcf3533d760bf306750ae08b01",
      "contractAddress": null,
      "gasUsedForL1": "0xd96",
      "l1BlockNumber": "0x99fef5",
      "timeboosted": false
    }
  ],
  "libraries": [],
  "pending": [],
  "returns": {},
  "timestamp": 1769005829149,
  "chain": 421614,
  "commit": null
}